:1000000005308A001B2D00000A108A100A11820791
:10001000EF34DF34BF347F340A108A100A118207AC
:10002000C034F934A434B034993492348234F8347E
:1000300080349034D3204E105024C126BA1264105C
:10004000A021C1242000C724CF2420244127BA1294
:100050006410A021C1242000D3204E105024C126BA
:10006000BA126410A021C1242000C724CF24202468
:100070004127BA126410A021C1242000D320D62227
:10008000441D25322000D3204E105024C126BA1220
:100090006410A021C1242000C724CF24202441279C
:1000A000BA126410A021C1242000201020102010BA
:1000B0002000CE20CE23A029D520541D253220108B
:1000C000C33069005034E93620233A10253220002D
:1000D0003B3084008313000803197B280230F800AA
:1000E000F701F70B7128F80B70289730F700F70B22
:1000F0007728800B6E2808000010831609108312E1
:100100000910831688018312340888008316891029
:100110008312891483168910831289100130BB0061
:10012000682008003830B4007C200530BB0068200F
:100130000C30B4007C200130B4007C200230BB00C5
:1001400068208A110A12542DF701F80134080310AF
:100150003518F707F70CF80CB518F707F70CF80C7B
:100160003519F707F70CF80CB519F707F70CF80C69
:10017000351AF707F70CF80CB51AF707F70CF80C57
:10018000351BF707F70CF80CB51BF707F70CF80C45
:1001900008000010831609108312091483168801C1
:1001A00083123A08880083168910831289148316F3
:1001B0008910831289100130BB00682008000B08E9
:1001C000B5008B13831603178C170C140000000066
:1001D00083120313B51B8B170318162903170C087A
:1001E0007F390313B50003170D080313B600031777
:1001F0000F080313B7003508BA00C92036080317E3
:100200008D000313370803178F0003130B08B80082
:100210008B13831603178C170C1400000000831235
:100220000313B81B8B17B40B1629352903170C0DB4
:100230000E0D7F390313B50003170D080313B60025
:1002400003170F080313B7003508BA00C920360892
:1002500003178D000313370803178F008D0A031946
:100260008F0A03100313B40BDF2808003B08F801C2
:100270003A0203183E293A08F7004A29F7010830E4
:10028000BC00BA0DF70D3B0877020318F700F80D14
:10029000BC0B412908002030351E3030B600340830
:1002A000F700B41F5B29F709F70A7708B4002D306F
:1002B000B600B51735143408BA006430BB003621D7
:1002C0007708B40030307807B7003408BA000A3035
:1002D000BB00362130307707B90030307807B800DE
:1002E0003608F7003030370203197A29B514B51BE8
:1002F00035158E293608B7002030B6003030380268
:10030000031986293514B51BB5148E29031D351420
:10031000031D8E293708B8002030B70035199529FC
:10032000B518982935189B299E293608BA00C92086
:100330003708BA00C9203808BA00C9203908BA00FD
:10034000C92008000C1CD5298E010B308F00DC3031
:100350008E000000AC0A0319AD0A0C102C08043CF6
:10036000031DD529AD08031DD529AD01AC01AE0A89
:100370000108A9002B08B4002108B500A4207808C2
:100380002907AA002E083C3C031DD529AE01AF0A5F
:10039000AB01AA0181012F083C3C031DD529AF0107
:1003A000B00A3008183C0319B0019430B4007C2026
:1003B000593003178D0000308F0003100A300313EB
:1003C000B400DF202A08B4001830B5004B215F309C
:1003D00003178D0000308F00031005300313B400A5
:1003E000DF208A110A12642D2E08BA000A30BB00E1
:1003F000362177080C20B4000030B1008316870145
:10040000831234088700B1133108831687008312E2
:1004100087130130BB006820B113310883168700B1
:10042000831287172E08BA000A30BB0036217808DD
:10043000BA000A30BB00362177080C20B400003027
:10044000B100831687018312340887008316851351
:10045000831285130130BB00682083168513831235
:1004600085170030B10083168701BF3083128700E3
:1004700083160513831205130130BB006820831611
:100480000513831205172F08BA000A30BB00362166
:1004900077080C20B4000030B10083168701831266
:1004A0003408870083168512831285120130BB0041
:1004B000682083168512831285162F08BA000A3029
:1004C000BB0036217808BA000A30BB003621770815
:1004D0000C20B4000030B100831687018312340869
:1004E000870083168511831285110130BB006820B7
:1004F00083168511831285150030B100831687019C
:10050000BF30831287008316051183120511013055
:10051000BB00682083160511831205153008BA0048
:100520000A30BB00362177080C20B4000030B1003F
:10053000831687018312340887008316851083127F
:1005400085100130BB006820831685108312851446
:100550003008BA000A30BB0036217808BA000A30E9
:10056000BB00362177080C20B4000030B1008316A0
:100570008701831234088700831605108312051043
:100580000130BB00682083160510831205148A1100
:100590000A12652DFF30B400B5013508033C031C79
:1005A000102B35080420B600831686018312360806
:1005B00086008316061483120618E42A350DB4004B
:1005C000B40DFC30B405D92A83168614831286181C
:1005D000F22A350DF700F70DFC30F7057708013EDC
:1005E000B400E42A8316061583120619002B350D74
:1005F000F700F70DFC30F7057708023EB400F22A49
:1006000083168615831286190E2B350DF700F70D0C
:10061000FC30F7057708033EB400002BB50ACD2A5D
:100620003408F8000800A708031D6C2BFF30A30056
:10063000CA227808A300A308031D212BA5010130BD
:10064000A800230B262B0130A500A8002308023C9C
:10065000031D2E2B0230A5000130A8002308033C07
:10066000031D362B0330A5000130A8002308043CED
:10067000031D3E2B0430A5000130A8002308053CD3
:10068000031D462B0530A5000130A8002308063CB9
:10069000031D4E2B0630A5000130A8002308073C9F
:1006A000031D562B0730A5000130A8002308083C85
:1006B000031D5E2B0830A5000130A8002308093C6B
:1006C000031D662B0930A5000130A8002308FF3C5C
:1006D00003196C2B0130A700270BC22BFF30A3009E
:1006E000CA227808A300A308031D792BA6010130B4
:1006F000A800230B7E2B0130A600A8002308023C93
:10070000031D862B0230A6000130A8002308033CFD
:10071000031D8E2B0330A6000130A8002308043CE3
:10072000031D962B0430A6000130A8002308053CC9
:10073000031D9E2B0530A6000130A8002308063CAF
:10074000031DA62B0630A6000130A8002308073C95
:10075000031DAE2B0730A6000130A8002308083C7B
:10076000031DB62B0830A6000130A8002308093C61
:10077000031DBE2B0930A6000130A8002308FF3C52
:10078000031DA701280BCD2B2508B4000A30B500A6
:10079000A42026087807A100CF2B1430A10023083D
:1007A0000F3C0319A20AA208031D0F2C81018030FF
:1007B000B4007C201A3003178D0000308F00031026
:1007C00009300313B400DF202008B4001830B5004E
:1007D0004B211F3003178D0000308F0003140630AB
:1007E0000313B400DF20C030B4007C202330031793
:1007F0008D0000308F00031009300313B400DF2098
:100800002108B4001830B5004B21283003178D00A3
:1008100000308F00031406300313B400DF20220BD6
:10082000562C0108A0002108803AF7002008803AE1
:10083000770203181E2C01308100AB0A8030B4000F
:100840007C202C3003178D0000308F0003100930FE
:100850000313B400DF202008B4001830B5004B218A
:10086000313003178D0000308F000314063003135E
:10087000B400DF20C030B4007C20353003178D0079
:1008800000308F00031009300313B400DF2021086B
:10089000B4001830B5004B213A3003178D000030FA
:1008A0008F00031406300313B400DF202208023C3B
:1008B000031D732C2008A400E030B4007C203E30DF
:1008C00003178D0000308F00031006300313B400AF
:1008D000DF202408B4001830B5004B212030BA00C6
:1008E000C920240881002208033C031D182D01089B
:1008F000A0002108803AF7002008803A7702031808
:10090000842C01308100AB0A8030B4007C2043305D
:1009100003178D0000308F00031009300313B4005B
:10092000DF202008B4001830B5004B2148300317F1
:100930008D0000308F00031406300313B400DF2055
:10094000C030B4007C204C3003178D0000308F0085
:10095000031009300313B400DF202108B40018305D
:10096000B5004B21513003178D0000308F00031468
:1009700006300313B400DF20E030B4007C20553093
:1009800003178D0000308F0003130B08B4008B1386
:10099000831603178C170C14000000008312031336
:1009A000B41B8B1703170C087F390319172D03137A
:1009B000B40003170D080313B50003170F08031342
:1009C000B6003408BA00C920350803178D00031398
:1009D000360803178F0003130B08B7008B13831619
:1009E00003178C170C140000000083120313B71BAD
:1009F0008B1703170C0D0E0D7F390319172D0313D9
:100A0000B40003170D080313B50003170F080313F1
:100A1000B6003408BA00C920350803178D00031347
:100A2000360803178F008D0A03198F0AC42C03138D
:100A30008A110A12662D03081F398300713083164C
:100A40008F0090010F088312A101A201A701A80144
:100A5000AB01AD01AC01AE01AF01B001FF30B1009F
:100A6000B301B201831603170908C03989000313C3
:100A70001F129F120030031788008312870188011C
:100A8000890183131030831603138500013086001B
:100A9000003087008312B100831688000910891086
:100AA000091189118312922883160108C739383831
:100AB000810083128101353090008E010B308F0050
:100AC000DC308E000000A229F429132BD430B400AE
:100AD0007C20623003178D0000308F000310083037
:100AE0000313B400DF202208B4001830B5004B21F6
:0A0AF0002030BA00C920632D630016
:04400E00E42FFF3F5D
:00000001FF
;PIC16F887
;CRC=55F2  CREATED="06-Apr-23 15:41"
