:1000000001308A0070290000FF00030E8301A10067
:100010000A08A0008A010408A2007708A300780853
:10002000A4007908A5007A08A600831383128C30F7
:100030008400801E1D288C1A2E2822088400230884
:10004000F7002408F8002508F9002608FA0020081F
:100050008A00210E8300FF0E7F0E09008A110A120A
:1000600031288C1E31281A08AD008C1E35281A083C
:10007000AE008C128A110A121D280330B102031C33
:100080004B28313084008313000803194B2849287A
:100090004928800B48288A110A12BF298E30F700A0
:1000A0003408F8003308F900FA01F808031D622843
:1000B0007908F800F9010830F702F808031D6228F2
:1000C000F7016A280310F81B6928F90DF80DF703EA
:1000D0006228F8138A110A12D12933080319322928
:1000E000BF00370803193229BF02031C7C287F3068
:1000F000BF070318322982288130BF02031C32292E
:10010000031932293F08F700F801F901FA01BE018D
:100110003408BD00BD173508BC003608BB001930D7
:10012000BF003A08BB020318A5280130BC0203181F
:10013000A528BD020318A528BE020318A528BE0ADB
:10014000BD0ABC0A3A08BB07D7283908BC02031805
:10015000C0280130BD020318C028BE020318C02801
:10016000BE0ABD0A3908BC073A08BB07031CD728DA
:10017000BC0A031DD728BD0A031DD728BE0AD728ED
:1001800038088038BD020318D6280130BE02031893
:10019000D628BE0A38088038BD073908BC07031CBA
:1001A000B428BD0A031DB428BE0AB4287A14BF0BB4
:1001B000DA28E5280310BB0DBC0DBD0DBE0D0310E4
:1001C000FA0DF90DF80DC00D9128401CED28031013
:1001D000F80CF90CFA0CC00CF028F70303193229BB
:1001E000C01B19290310BB0DBC0DBD0DBE0D3A0877
:1001F000BB02031805290130BC0203180529BD0202
:1002000003180529BE02031C28293908BC0203185B
:1002100010290130BD0203181029BE02031C282931
:1002200038088038BD02031819290130BE02031CAA
:100230002829FA0A031D2829F90A031D2829F80A82
:10024000031D2829F70A03193229F80CF90CFA0CB6
:100250003408BF003808BF06BF1F3029F8173629F9
:10026000F8133629F701F801F901FA018A110A1287
:10027000E2298E30F7003108F7023208F90033081E
:10028000F800F917F708031950290310F908031D9E
:100290004C29F80803195029F90CF80CF70B4529DB
:1002A000B21F5729F809F909F80A0319F90A8A113E
:1002B0000A12EB29313084008313000803196D29D9
:1002C0000630F800F701F70B6329F80B62297B3041
:1002D000F700F70B6929800B60298A110A12F629A9
:1002E00003081F398300831603178715083003138B
:1002F000990002309A00A63098009030831298003E
:10030000FF30B000831603170908C03989000313B2
:100310001F129F1200300317880083128701880183
:1003200089018313FF308316031385008030870013
:100330008312B000831609148914091589158312D4
:100340001F139F1783169F1783121F1483160317FB
:100350000908C039890003131F129F12A030031728
:10036000880003138C16C03083128B041C30F800F5
:100370001F08C33978049F00C830B1003D289F147E
:100380009F18C0291E08F90083161E08F800790876
:100390008312B2007808B1003208B4007808B300C4
:1003A0004E287A08B6007908B5007808B4007708B6
:1003B000B300AA30BA00F130B9000230B800803082
:1003C000B7006D287A08B4007908B3007808B20045
:1003D0007708B10039297908AA007808A900290806
:1003E0000C1EF02999006430B1005A29B629630027
:04400E00E22FFF3F5F
:00000001FF
;PIC16F887
;CRC=069E  CREATED="06-May-23 16:07"
