:1000000003308A00102B0000FF00030E8301A100C3
:100010000A08A0008A010408A2007708A300780853
:10002000A4007908A5007A08A60003170D08031399
:10003000A70003170F080313A80003170C080313E6
:10004000A90003170E080313AA00831383128C3030
:100050008400801E2D288C1A4E2822088400230834
:10006000F7002408F8002508F9002608FA002708F8
:1000700003178D000313280803178F0003132908A3
:1000800003178C0003132A0803178E00031320089C
:100090008A00210E8300FF0E7F0E09008A110A12CA
:1000A00059280A108A100A118207EF34DF34BF344E
:1000B0007F348C1E59281A08B3008C128A110A1238
:1000C0002D284E34E9327410E437A025351DA012D6
:1000D000751000005034E93620316137203261104C
:1000E0006E3461373A102536751000004E34E9320F
:1000F0007410E437A025371DA0127510000150348C
:10010000E93620316137203261106E3461373A10A0
:100110002536751000014E34E9327410E437A025FD
:10012000351DA012751000014E34E9327410E43709
:10013000A025371DA012751000015034E93620317A
:100140006137203261106E3461373A1041004E340D
:10015000E9327410E437A025351D2010201020004E
:100160004E34E9327410E437A025371D20102010DA
:1001700020005034E93620316137203261106E346E
:1001800061373A104400413084008313000803199A
:10019000D6280630F800F701F70BCC28F80BCB284F
:1001A0007B30F700F70BD228800BC9280800831694
:1001B000891083128910831609118312091183167D
:1001C00088018312370888008316091083120914E6
:1001D00083160910831209100130C100C3200800E2
:1001E0003830B700D7200530C100C3200C30B7002D
:1001F000D7200130B700D7200230C100C3208A11B8
:100200000A12452BFF30B700B8013808033C031C25
:10021000482938085120B90083168601831239080D
:10022000860083160614831206181C29380DB700A1
:10023000B70DFC30B7051129831686148312861872
:100240002A29380DF700F70DFC30F7057708013E35
:10025000B7001C2983160615831206193829380D94
:10026000F700F70DFC30F7057708023EB7002A29A2
:1002700083168615831286194629380DF700F70D67
:10028000FC30F7057708033EB7003829B80A05297E
:100290003708F800AC017808AB002B08053C031DBB
:1002A0005729AC08031D5729AE010530AD002B08B6
:1002B000073C031D6129AC08031D6129AE0107300D
:1002C000AD002B080A3C031D6B29AC08031D6B29EC
:1002D000AE010A30AD002B080D3C031D7529AC089A
:1002E000031D7529AE010D30AD008A110A124B2B8A
:1002F000F801F901F701FA013A08031D82293908CA
:1003000003199C291030BB000310B70DB80DF70D71
:10031000FA0D3A087A02031D8F2939087702031C67
:1003200098293908F702031CFA033A08FA02031461
:10033000F80DF90DBB0B8429080083168910831270
:1003400089108316091183120915831688018312F7
:1003500040088800831609108312091483160910B7
:10036000831209100130C100C32008000B08B80037
:100370008B13831603178C170C14000000008312D4
:100380000313B81B8B170318ED2903170C087F39CB
:100390000313B80003170D080313B90003170F0860
:1003A0000313BA003808C0009D21390803178D00D7
:1003B00003133A0803178F0003130B08BB008B13BA
:1003C000831603178C170C1400000000831203130C
:1003D000BB1B8B17B70BED290C2A03170C0D0E0D49
:1003E0007F390313B80003170D080313B90003176F
:1003F0000F080313BA003808C0009D2139080317FD
:100400008D0003133A0803178F008D0A03198F0A12
:1004100003100313B70BB62908003A08F801390294
:100420000318152A3908F700212AF7010830BB0004
:10043000B90DF70D3A0877020318F700F80DBB0B5A
:10044000182A080078083708B9006430BA000D226D
:100450007708B70078083030031D352AB81C3C2ACD
:10046000B8193C2A381A2030382AB81138123814F2
:10047000F8077808C0009D213708B9000A30BA0093
:100480000D227708B70078083030031D4D2AB819BF
:10049000512A381C512A381A2030F8077808C00031
:1004A0009D213030B7073708C0009D210800BF01EB
:1004B0000408BE003F10831B3F14380EF038BA000A
:1004C000BA07E23EBB00323EBD0038080F39BB0719
:1004D000BB07BD07E93EBC00BC07BC07370E0F39A0
:1004E000BC07BD07BC0DBD0DBD09BD0D37080F39DB
:1004F000BD07BA0D0730B9000A30BD07BC03031CA5
:100500007D2ABC07BB03031C812ABB07BA03031C5B
:10051000852ABA07B903031C892A3930840083135A
:1005200007303E053E1384073D30040203193E1791
:100530000008F700031DA42A3E1BA42A3E1AB62A6F
:10054000BE19A42A2030A72ABE153E123030F70764
:10055000B8010408B7003810831B38147708C000AE
:100560009D2137088400831338188317840A3E1F9F
:10057000942A08000B08B7008B13831603178C17F7
:100580000C140000000083120313B71B8B17031712
:100590000C087F3903190E2B0313B70003170D083E
:1005A0000313B80003170F080313B9003708C0007E
:1005B0009D21380803178D000313390803178F0096
:1005C00003130B08BA008B13831603178C170C1434
:1005D0000000000083120313BA1B8B1703170C0DC6
:1005E0000E0D7F3903190E2B0313B70003170D08E7
:1005F0000313B80003170F080313B9003708C0002E
:100600009D21380803178D000313390803178F0045
:100610008D0A03198F0A0313BA2A0317031308005C
:1006200003081F3983008316031787150830031347
:10063000990002309A00A6309800903083129800FA
:10064000AE01AD01FF30B400B601B501831603174A
:100650000908C039890003131F129F1200300317C5
:10066000880083128701880189018313FF30831674
:10067000031385008600803087008312B4000030A9
:10068000831687008312B400F02883168C16C030BE
:1006900083128B0402292E08B8002D08B700BA0176
:1006A0000A30B90078217708B1002E08B8002D086B
:1006B000B700BA010A30B90078217808B2003208D0
:1006C0000C1E602B990031080C1E642B99002D081C
:1006D000053C031D9A2BAE08031D9A2B8030B700F2
:1006E000D720613003178D0000308F0003100D30CC
:1006F0000313B700B6212F08B7001B30B800222221
:100700002030C0009D21D430B700D7206A300317B5
:100710008D0000308F00031012300313B700B62194
:10072000103084002E08B8002D08B7005722203062
:10073000C0009D212D08073C031DCD2BAE08031DD5
:10074000CD2B8030B700D720763003178D000030D6
:100750008F0003100D300313B700B6213008B70027
:100760001B30B80022222030C0009D21D430B700B9
:10077000D7207F3003178D0000308F000310123018
:100780000313B700B621103084002E08B8002D08DE
:10079000B70057222030C0009D212D080A3C031DC0
:1007A000082CAE08031D082C8030B700D7208B30F2
:1007B00003178D0000308F0003100D300313B700B6
:1007C000B6212F08B7001B30B80022222030C0000D
:1007D0009D21C030B700D720943003178D00003022
:1007E0008F0003100D300313B700B6213008B70097
:1007F0001B30B80022222030C0009D21D430B70029
:10080000D7209D3003178D0000308F000313BA22CC
:100810002D080D3C031D2D2CAE08031D2D2C803002
:10082000B700D720A73003178D0000308F000313C7
:10083000BA22C030B700D720B03003178D00003087
:100840008F000313BA22D430B700D720B930031772
:0E0850008D0000308F000313BA224A2B630084
:04400E00E22FFF3F5F
:00000001FF
;PIC16F887
;CRC=4092  CREATED="06-May-23 16:07"
