:1000000000308A00BC28000031003C30840083139B
:100010000008031918280230F800F701F70B0E2822
:10002000F80B0D289730F700F70B1428800B0B28DE
:100030000800831686108312861083160611831219
:100040000611831685018312380885008316061071
:100050008312061483160610831206100130BC00AA
:10006000052008003830B80019200530BC000520F4
:100070000C30B80019200130B80019200230BC0043
:1000800005208A110A12EB28831686108312861027
:1000900083160611831206158316850183123B0809
:1000A0008500831606108312061483160610831229
:1000B00006100130BC00052008009330B80019205C
:1000C000043003178D0000308F0003130B08B800B5
:1000D0008B13831603178C170C1400000000831277
:1000E0000313B81B8B1703170C087F390319B828A3
:1000F0000313B80003170D080313B90003170F0803
:100100000313BA003808BB004420390803178D00D8
:1001100003133A0803178F0003130B08BB008B135C
:10012000831603178C170C140000000083120313AE
:10013000BB1B8B1703170C0D0E0D7F390319B82845
:100140000313B80003170D080313B90003170F08B2
:100150000313BA003808BB004420390803178D0088
:1001600003133A0803178F008D0A03198F0A6528B5
:1001700003138A110A12EC2803081F398300713017
:1001800083168F0090010F0801308312B400B6016E
:10019000B501FF30B700831603170908C03989007D
:1001A00003131F129F120030031788008312870168
:1001B00088018901831300308316031388008700A8
:1001C0008312B7008316850086000914891009116F
:0A01D0008911831232285D286300B4
:04400E00E42FFF3F5D
:00000001FF
;PIC16F887
;CRC=5EB4  CREATED="06-Apr-23 16:31"
