:1000000004308A00B12C00000A108A100A118207FD
:10001000C034F934A434B034993492348234F8348E
:10002000803490343C08F8013B0203181A283B083E
:10003000F7002628F7010830BD00BB0DF70D3C087E
:1000400077020318F700F80DBD0B1D2808003A30A1
:1000500084008313000803193A280230F800F701DE
:10006000F70B3028F80B2F289730F700F70B3628BE
:10007000800B2D2808003808BB000A30BC00122075
:1000800077080420BA008316850183123A08850098
:1000900083168610831286100130BA00272083163B
:1000A0008610831286143808BB000A30BC00122068
:1000B0007808BB000A30BC00122077080420BA0080
:1000C0008316850183123A08850083160610831271
:1000D00006100130BA00272083160610831206147A
:1000E000080083160914831209188B281430BA00EB
:1000F000272083160914831209188A28B80A831640
:1001000009148312091C7F2838080B3C031D8A2818
:100110000130B800A3288316891483128918A328F4
:100120001430BA0027208316891483128918A32853
:10013000B803831689148312891C9928B808031DF3
:10014000A3280A30B8000800A301A201A101A00160
:10015000A308031D1D29A208031D1D29A108031DB5
:100160001D292008023C031C1D29A701A601FF3000
:10017000A500A40083168801831224088800BE010C
:100180000030B90083168701831225088700B70164
:10019000B601B501B401B708031DE228B608031D76
:1001A000E228B508031DE2283408093C031CE228B4
:1001B0003B200130B4070318B50A0319B60A031926
:1001C000B70ACB287120A701A601A501A4018316B7
:1001D0008801831224088800BE010030B90083160C
:1001E00087018312250887007120B701B601B50188
:1001F000B401B708031D1029B608031D1029B5085E
:10020000031D10293408093C031C10293B20013030
:10021000B4070318B50A0319B60A0319B70AF9286F
:10022000380B132914291D290130A0070318A10A2E
:100230000319A20A0319A30AA8288A110A12102D69
:10024000A701A601A5010130A400A301A201A101FB
:10025000A001A308031D8A29A208031D8A29A10859
:10026000031D8A292008103C031C8A290310240D31
:10027000BB00250DBC00260DBD00270DBE000130C2
:100280003B07A4003C08A500003003180130A50777
:100290003D08A600003003180130A6073E08A7005D
:1002A000003003180130A707831688018312240841
:1002B0008800BE010030B90083168701831225082B
:1002C00087007120B701B601B501B401B708031D5D
:1002D0007D29B608031D7D29B508031D7D29340835
:1002E000093C031C7D293B200130B4070318B50AE3
:1002F0000319B60A0319B70A66293808023C031D18
:100300008A290130A0070318A10A0319A20A0319B8
:10031000A30A29298A110A12102DA301A201A10101
:10032000A001A308031DE429A208031DE429A108D4
:10033000031DE4292008183C031CE429A701A60199
:10034000FF30A500A4002008BA000319AE2903104D
:10035000A70CA60CA50CA40CBA0BA7298316880120
:10036000831224088800BE010030B900831687017B
:100370008312250887007120B701B601B501B401C9
:10038000B708031DD729B608031DD729B508031DD3
:10039000D7293408093C031CD7293B200130B40776
:1003A0000318B50A0319B60A0319B70AC029380891
:1003B000033C031DE4290130A0070318A10A031917
:1003C000A20A0319A30A91298A110A12102DA30166
:1003D000A201A101A001A308031D4A2AA208031D2E
:1003E0004A2AA108031D4A2A2008103C031C4A2A55
:1003F000FA01F901FF30F800F7002008BA000319EC
:10040000082A0310FA0CF90CF80CF70CBA0B012AA5
:100410007708A400A4097808A500A5097908A60012
:10042000A6097A08A700A709831688018312240861
:100430008800BE010030B9008316870183122508A9
:1004400087007120B701B601B501B401B708031DDB
:100450003D2AB608031D3D2AB508031D3D2A340870
:10046000093C031C3D2A3B200130B4070318B50AA0
:100470000319B60A0319B70A262A3808043C031DD3
:100480004A2A0130A0070318A10A0319A20A031976
:10049000A30AEB298A110A12102DA301A201A101BE
:1004A000A001A308031DA42AA208031DA42AA108D1
:1004B000031DA42A2008183C031CA42AA701A60196
:1004C000FF30A500A4002008BA0003196E2A03100B
:1004D000A40DA50DA60DA70DBA0B672A83168801DA
:1004E000831224088800BE010030B90083168701FA
:1004F0008312250887007120B701B601B501B40148
:10050000B708031D972AB608031D972AB508031DCF
:10051000972A3408093C031C972A3B200130B40772
:100520000318B50A0319B60A0319B70A802A38084E
:10053000053C031DA42A0130A0070318A10A0319D2
:10054000A20A0319A30A512A8A110A12102DA30123
:10055000A201A101A001A308031DFE2AA208031DF8
:10056000FE2AA108031DFE2A2008103C031CFE2AB7
:10057000A701A601A5010130A4002008BA000319B3
:10058000C82A0310A40DA50DA60DA70DBA0BC12AEC
:1005900083168801831224088800BE010030B90048
:1005A000831687018312250887007120B701B601E1
:1005B000B501B401B708031DF12AB608031DF12ADD
:1005C000B508031DF12A3408093C031CF12A3B201D
:1005D0000130B4070318B50A0319B60A0319B70A9C
:1005E000DA2A3808063C031DFE2A0130A00703184A
:1005F000A10A0319A20A0319A30AAB2A8A110A1233
:10060000102DA301A201A101A001A308031D592BD4
:10061000A208031D592BA108031D592B2008103CCB
:10062000031C592BA701A6018030A5000130A400AE
:100630002008BA000319232B0310A70CA60CA50C45
:10064000A40CBA0B1C2B8316880183122408880083
:10065000BE010030B9008316870183122508870088
:100660007120B701B601B501B401B708031D4C2BC9
:10067000B608031D4C2BB508031D4C2B3408093C50
:10068000031C4C2B3B200130B4070318B50A031997
:10069000B60A0319B70A352B3808073C031D592B36
:1006A0000130A0070318A10A0319A20A0319A30A1B
:1006B000052B8A110A12102DA301A201A101A0018C
:1006C000A308031DB32BA208031DB32BA108031D10
:1006D000B32B2008103C031CB32BA701A601A501D6
:1006E0000730A4002008BA0003197D2B0310A40DC5
:1006F000A50DA60DA70DBA0B762B831688018312C4
:1007000024088800BE010030B900831687018312D7
:10071000250887007120B701B601B501B401B708FB
:10072000031DA62BB608031DA62BB508031DA62B7B
:100730003408093C031CA62B3B200130B4070318E6
:10074000B50A0319B60A0319B70A8F2B3808083CF3
:10075000031DB32B0130A0070318A10A0319A20A35
:100760000319A30A602B8A110A12102DA301A201FA
:10077000A101A001A308031D0D2CA208031D0D2C2F
:10078000A108031D0D2C2008183C031C0D2CA701EB
:10079000A601E030A500A4012008BA000319D72B58
:1007A0000310A70CA60CA50CA40CBA0BD02B831617
:1007B0008801831224088800BE010030B900831626
:1007C00087018312250887007120B701B601B501A2
:1007D000B401B708031D002CB608031D002CB50892
:1007E000031D002C3408093C031C002C3B20013065
:1007F000B4070318B50A0319B60A0319B70AE92B97
:100800003808093C031D0D2C0130A0070318A10A6C
:100810000319A20A0319A30ABA2B8A110A12102D6E
:10082000AB01AA01A901A801A301A201A101A00194
:10083000A308031DAE2CA208031DAE2CA108031DA6
:10084000AE2C20080F3C031CAE2CB301B20180304B
:10085000B100B001AF01AE01AD01AC012008103C08
:10086000F700F8012108031C210FF802F901220802
:10087000031C220FF902FA012308031C230FFA02BA
:100880002F087A02031C9D2C031D562C2E0879027A
:10089000031C9D2C031D562C2D087802031C9D2C37
:1008A000031D562C77082C0203189D2C30082804B1
:1008B000A40031082904A50032082A04A600330840
:1008C0002B04A70038080A3C031D9D2C83168801C1
:1008D000831224088800BE010030B9008316870106
:1008E0008312250887007120B701B601B501B40154
:1008F000B708031D8F2CB608031D8F2CB508031DE8
:100900008F2C3408093C031C8F2C3B200130B4078A
:100910000318B50A0319B60A0319B70A782C03108D
:10092000B30CB20CB10CB00C0130AC070318AD0A1B
:100930000319AE0A0319AF0A2E2C2708AB002608AC
:10094000AA002508A9002408A8000130A007031860
:10095000A10A0319A20A0319A30A182C8A110A1260
:10096000102D03081F398300713083168F0090010A
:100970000F0801308312B800FF30B9008316031747
:100980000908C039890003131F129F120030031792
:100990008800831287018801890183130030831640
:1009A0000313880087008312B90083168600850030
:1009B000091489100911891183123808013A0319A1
:1009C000FD2C033A0319FF2C013A0319012D073AB4
:1009D0000319032D013A0319052D033A0319072DB5
:1009E000013A0319092D0F3A03190B2D013A031986
:1009F0000D2D033A03190F2D102DA428102D202999
:100A0000102D8D29102DE729102D4D2A102DA72AE4
:100A1000102D012B102D5C2B102DB62B102D102C12
:040A2000DD2C630066
:04400E00E42FFF3F5D
:00000001FF
;PIC16F887
;CRC=5047  CREATED="15-Mar-23 10:22"
