:1000000006308A00AB2E0000C42720214927481063
:100010005424D527CE230000C427202AD22ACE2359
:100020002021492748102000D3204E105024C126FB
:100030003A10253675102000D424CD223A10803293
:100040004E24C9225410C4273A10253675102000BA
:10005000201000004E24C9225410C4273A1025361F
:1000600064102000201000003A3084008313000840
:10007000031947280630F800F701F70B3D28F80B65
:100080003C287B30F700F70B4328800B3A28080008
:10009000201320088316870083120713A01220085C
:1000A0008316870083128712831688018312300813
:1000B0008800A01320088316870083128717A013D7
:1000C000200883168700831287130130BA0034207A
:1000D00008003830B00048200530BA0034200C3019
:1000E000B00048200130B00048200230BA0034206F
:1000F0008A110A12D72E2013200883168700831234
:100100000713A01220088316870083128716831610
:100110008801831239088800A013200883168700FD
:1001200083128717A0132008831687008312871372
:100130000130BA00342008000B08B1008B1383167D
:1001400003178C170C140000000083120313B11B5B
:100150008B170318D32803170C087F390313B1003A
:1001600003170D080313B20003170F080313B3009E
:100170003108B9007B20320803178D0003133308C0
:1001800003178F0003130B08B4008B138316031798
:100190008C170C140000000083120313B41B8B1780
:1001A000B00BD328F22803170C0D0E0D7F39031363
:1001B000B10003170D080313B20003170F08031350
:1001C000B3003108B9007B20320803178D000313F8
:1001D000330803178F008D0A03198F0A03100313C6
:1001E000B00B9C280800B8010408B7003810831B26
:1001F0003814310EF038B300B307E23EB400323E9B
:10020000B60031080F39B407B407B607E93EB500A8
:10021000B507B507300E0F39B507B607B50DB60DE2
:10022000B609B60D30080F39B607B30D0730B20066
:100230000A30B607B503031C1929B507B403031C1C
:100240001D29B407B303031C2129B307B203031C00
:10025000252932308400831307303705371384078C
:1002600036300402031937170008F700031D402930
:10027000371B4029371A5229B71940292030432902
:10028000B71537123030F707B1010408B00031104C
:10029000831B31147708B9007B2030088400831356
:1002A00031188317840A371F30290800A21B6129DF
:1002B000A208031D5F292108183C03186129013099
:1002C00081000108FA01A1007A08A2008030B00084
:1002D0004820143003178D0000308F0003100A30BF
:1002E0000313B0009C20103084002208B1002108C4
:1002F000B000F3202030B9007B202030B9007B20F3
:100300008A110A12002F0B08B0008B1383160317F3
:100310008C170C140000000083120313B01B8B1702
:1003200003170C087F390319D7290313B0000317EB
:100330000D080313B10003170F080313B2003008B0
:10034000B9007B20310803178D000313320803170F
:100350008F0003130B08B3008B13831603178C173E
:100360000C140000000083120313B31B8B17031738
:100370000C0D0E0D7F390319D7290313B000031795
:100380000D080313B10003170F080313B200300860
:10039000B9007B20310803178D00031332080317BF
:1003A0008F008D0A03198F0A031383290317031380
:1003B00008003208F80131020318E1293108F7007A
:1003C000ED29F7010830B300B10DF70D32087702BF
:1003D0000318F700F80DB30BE42908000C1C0C2AD5
:1003E0008E010B308F00DC308E000000A90A0C104B
:1003F00029080A3C031D0C2AA901AC0A2C083C3C24
:10040000031D0C2AAB0A2B083C3C031D0C2AAA0A2C
:100410002A08183C0319AA01C030B00048201C303B
:1004200003178D0000308F00031383212A08B100C9
:100430000A30B200D9217808B1000A30B200D921BF
:1004400030307707B000B9007B202A08B1000A30AD
:10045000B200D92130307707B000B9007B203A30A4
:10046000B9007B202B08B1000A30B200D9217808EE
:10047000B1000A30B200D92130307707B000B9009E
:100480007B202B08B1000A30B200D9213030770729
:10049000B000B9007B203A30B9007B202C08B100B5
:1004A0000A30B200D9217808B1000A30B200D9214F
:1004B00030307707B000B9007B202C08B1000A303B
:1004C000B200D92130307707B000B9007B208A1103
:1004D0000A12012F83168514831285187E2A143080
:1004E000BA00342083168514831285187E2A0130C1
:1004F000AD06831685148312851C792A8A110A1287
:10050000022FD430B00048202D188D2A0430031754
:100510008D0000308F00031383212D1C962A0C3090
:1005200003178D0000308F00031383218A110A12F4
:10053000032F8E30F7003308F8003208F900FA0173
:10054000F808031DAD2A7908F800F9010830F70210
:10055000F808031DAD2AF701B52A0310F81BB42AC9
:10056000F90DF80DF703AD2AF81308003208031946
:100570007B2BBE00360803197B2BBE02031CC52A49
:100580007F30BE0703187B2BCB2A8130BE02031CB1
:100590007B2B03197B2B3E08F700F801F901FA01C8
:1005A000BD013308BC00BC173408BB003508BA00D5
:1005B0001930BE003908BA020318EE2A0130BB0216
:1005C0000318EE2ABC020318EE2ABD020318EE2A15
:1005D000BD0ABC0ABB0A3908BA07202B3808BB027F
:1005E0000318092B0130BC020318092BBD020318A4
:1005F000092BBD0ABC0A3808BB073908BA07031C17
:10060000202BBB0A031D202BBC0A031D202BBD0A77
:10061000202B37088038BC0203181F2B0130BD0285
:1006200003181F2BBD0A37088038BC073808BB07E2
:10063000031CFD2ABC0A031DFD2ABD0AFD2A7A14EB
:10064000BE0B232B2E2B0310BA0DBB0DBC0DBD0D05
:100650000310FA0DF90DF80DBF0DDA2A3F1C362BE9
:100660000310F80CF90CFA0CBF0C392BF703031923
:100670007B2BBF1B622B0310BA0DBB0DBC0DBD0D38
:100680003908BA0203184E2B0130BB0203184E2B57
:10069000BC0203184E2BBD02031C712B3808BB0291
:1006A0000318592B0130BC020318592BBD02031C3F
:1006B000712B37088038BC020318622B0130BD0251
:1006C000031C712BFA0A031D712BF90A031D712BF0
:1006D000F80A031D712BF70A03197B2BF80CF90C90
:1006E000FA0C3308BE003708BE06BE1F792BF81778
:1006F0007F2BF8137F2BF701F801F901FA010800AD
:100700008E30F7003408F7023508F9003608F80093
:10071000F917F7080319972B0310F908031D932BFA
:10072000F8080319972BF90CF80CF70B8C2BB51F55
:100730009E2BF809F909F80A0319F90A08002D187F
:10074000F82B9F149F18A22B1E08F90083161E0871
:10075000F80079088312B1007808B0003108B300BE
:100760007808B20099227A08B5007908B4007808B0
:10077000B3007708B200AA30B900F130B8000230F7
:10078000B7008130B600B6227A08B7007908B60003
:100790007808B5007708B40080237908A4007808A9
:1007A000A3009430B0004820203003178D000030A3
:1007B0008F0003100A300313B0009C201030840017
:1007C0002408B1002308B000F3202030B9007B20BA
:1007D0002030B9007B20DF30B9007B204330B900E6
:1007E0007B20283003178D0000308F0003138321F6
:1007F0002D1CA82E9F149F18FB2B1E08F900831692
:100800001E08F80079088312B1007808B00031089A
:10081000B3003008B20099227A08B5007908B40014
:100820007808B3007708B200AA30B900F130B800F8
:100830000230B7008130B600B6227A08B3007908DA
:10084000B2007808B1007708B0002608B500250886
:10085000B4008E30F7003508F8003408F900FA01CA
:10086000B51F372CF809F909F90A0319F80AF8082D
:10087000031D442C7908F800F9010830F702F80844
:10088000031D442CF7014D2C0310F81B4B2CF90DC4
:10089000F80DF703442CB51FF81383107A08B7003E
:1008A0007908B6007808B5007708B4003308BB00B3
:1008B0003208BA003108B9003008B8008030831817
:1008C000B906BE01BF013508BD003908BD063408B0
:1008D00003194E2DBC00F70038080319572DBC0230
:1008E0000319F32C031CB12C3908C200C2173A08B3
:1008F000C1003B08C000BF010310C20CC10CC00CFA
:10090000BF0CBC0B7B2CBD1F882C3E146B2D3E10E6
:100910003C103E16373084008313802D3E12BD1BE1
:100920009B2C3C1CA62CC20CC10CC00CBF0CF70AA3
:100930000319662DA62CC21BA92C0310BF0DC00DD8
:10094000C10DC20DF7030319662D9B2C3E17132D05
:100950003E133508BD00BD1FAF2CC2175F2DC2135B
:100960005F2D3808BC00F7003408BC023508C2000F
:10097000C2173608C1003708C000BF010310C20CFF
:10098000C10CC00CBF0CBC0BBD2CBD1FCA2CBE14AF
:100990006B2DBE103C10BE163B3084008313802D9F
:1009A000BE12BD1BDD2C3C1CE82CC20CC10CC00CC3
:1009B000BF0CF70A0319662DE82CC21BEB2C0310A1
:1009C000BF0DC00DC10DC20DF7030319662DDD2C3F
:1009D000BE17132DBE133908BD00BD1FF12CC21761
:1009E0005F2DC2135F2D3908C200C2173A08C1003B
:1009F0003B08C000BD1F002DC2133E156B2D3E11DC
:100A0000BF013C10373084008313802DBD1B292D7E
:100A10003508BD003C1C132DC20CC10CC00CBF0C12
:100A2000F70A0319662DBF1F242DC00A031D242DAC
:100A3000C10A031D242DC20A031D242DC20CC10CA2
:100A4000C00CF70A0319662D3E1BA82CBE1BEA2C0E
:100A5000482D8030C206C21F312D6B2D3908BD00D4
:100A60003E2D3508BD00C208031D3E2DC108031DE3
:100A70003E2DC008031D3E2DF7015F2DC21B482DE2
:100A80000310BF0DC00DC10DC20DF70B3E2D662D1D
:100A9000BD1F4C2DC2175F2DC2135F2D3808F70004
:100AA0003908C2003A08C1003B08C0005F2D340875
:100AB000F7003508C2003608C1003708C0004208F8
:100AC000F8004108F9004008FA009E2DF701F801EE
:100AD000F901FA019E2DBF01C009C109C209BF0970
:100AE000BF0A031D792DC00A031D792DC10A031900
:100AF000C20A3E18872CBE18C92C3E19FF2C2E2D79
:100B00000008C007031C8A2DC10A031D8A2DC20AD2
:100B100003193C1484030008C107031C922DC20A68
:100B200003193C1484030008801F803AC20703188D
:100B30003C143E1A8E2CBE1AD02C062D7A08B70013
:100B40007908B6007808B5007708B40080237908E2
:100B5000A6007808A500A70A0319A80AA81B032E57
:100B6000A808031DB72D2708633C0318032E260889
:100B7000B1002508B000B3016430B200310833067B
:100B80008039B500B11FC92DB009B109B00A0319E8
:100B9000B10AB31FD02DB209B309B20A0319B30ABF
:100BA000F801F901F701FA013308031DDA2D3208C3
:100BB0000319F42D1030B4000310B00DB10DF70D72
:100BC000FA0D33087A02031DE72D32087702031C61
:100BD000F02D3208F702031CFA033308FA0203145B
:100BE000F80DF90DB40BDC2DB51FFB2DF809F90933
:100BF000F80A0319F90A7908A4007808A300A601E5
:100C0000A501A801A7019430B00048202A3003179D
:100C10008D0000308F0003100A300313B0009C20B9
:100C2000103084002408B1002308B000B801040883
:100C3000B7003810831B3814B11F262EB717371E84
:100C4000B70AB009B109B00A0319B10A310EF03878
:100C5000B300B307E23EB400323EB60031080F39AC
:100C6000B407B407B607E93EB500B507B507300EBF
:100C70000F39B507B607B50DB60DB609B60D300874
:100C80000F39B607B30D0730B2000A30B607B50307
:100C9000031C462EB507B403031C4A2EB407B30346
:100CA000031C4E2EB307B203031C522E32308400B5
:100CB000831307303705371384033705031D672E69
:100CC000371A840A371A672E2030F700842E8407DB
:100CD00036300402031937170008F700031D782E79
:100CE000371B782E371A922EB719782E2030832E84
:100CF000B71F802E2D30F70084033713B713842ECF
:100D0000B71537123030F707B1010408B0003110C1
:100D1000831B31147708B9007B20300884008313CB
:100D200031188317840A371F682E2030B9007B20C2
:100D30002030B9007B20DF30B9007B204330B90080
:100D40007B20323003178D0000308F000313832186
:100D50008A110A12042F03081F398300FF30A000F4
:100D6000A601A501A801A701A901AA01AB01AC0137
:100D70002D10AF01AE01831603170908C039890091
:100D800003131F129F12003003178800831287017C
:100D9000880189018313FF30831603138500003017
:100DA00087008312A00083168800831269288316A7
:100DB0000108C7393838810083128101353090002D
:100DC0008E010B308F00DC308E0000001F139F1748
:100DD00083169F1783121F14831603170908C0393F
:100DE000890003131F169F1201300317880000307B
:100DF000F800831203131F08C33978049F00562993
:0C0E0000EE296A2A812A9F2BFF2E630036
:04400E00E22FFF3F5F
:00000001FF
;PIC16F887
;CRC=8CC5  CREATED="21-Apr-23 22:45"
