:1000000003308A00532B0000FF00030E8301A10080
:100010000A08A0008A010408A2007708A300780853
:10002000A4007908A5007A08A60003170D08031399
:10003000A70003170F080313A80003170C080313E6
:10004000A90003170E080313AA00831383128C3030
:100050008400001F2D280C1B5E288C308400001C9F
:1000600033280C1861288C308400801C39288C18A7
:1000700064288B1E3D280B1967282208840023085A
:10008000F7002408F8002508F9002608FA002708D8
:1000900003178D000313280803178F000313290883
:1000A00003178C0003132A0803178E00031320087C
:1000B0008A00210E8300FF0E7F0E09008A110A12AA
:1000C0006A288A110A12A2298A110A12AD298A11F4
:1000D0000A129B299F186A281E08F90083161E0819
:1000E000F80079088312BA007808B9003A08BC0011
:1000F0003908BB008E30F7003C08F8003B08F900D7
:10010000FA01F808031D8E287908F800F901083073
:10011000F702F808031D8E28F70196280310F81B34
:100120009528F90DF80DF7038E28F8137A08BE000C
:100130007908BD007808BC007708BB00AA30C2006F
:10014000F130C1000230C0008030BF003B0803190D
:100150006B29C7003F0803196B29C702031CB52888
:100160007F30C70703186B29BB288130C702031CE7
:100170006B2903196B294708F700F801F901FA0107
:10018000C6013C08C500C5173D08C4003E08C300B1
:100190001930C7004208C3020318DE280130C40228
:1001A0000318DE28C5020318DE28C6020318DE285D
:1001B000C60AC50AC40A4208C30710294108C40276
:1001C0000318F9280130C5020318F928C6020318DC
:1001D000F928C60AC50A4108C4074208C307031C18
:1001E0001029C40A031D1029C50A031D1029C60AB7
:1001F000102940088038C50203180F290130C602B3
:1002000003180F29C60A40088038C5074108C407EB
:10021000031CED28C50A031DED28C60AED287A1433
:10022000C70B13291E290310C30DC40DC50DC60D20
:100230000310FA0DF90DF80DC80DCA28481C26291F
:100240000310F80CF90CFA0CC80C2929F703031950
:100250006B29C81B52290310C30DC40DC50DC60D53
:100260004208C30203183E290130C40203183E2984
:10027000C50203183E29C602031C61294108C402B5
:10028000031849290130C50203184929C602031C75
:10029000612940088038C502031852290130C6027E
:1002A000031C6129FA0A031D6129F90A031D61294A
:1002B000F80A031D6129F70A03196B29F80CF90CD8
:1002C000FA0C3C08C7004008C706C71F6929F81781
:1002D0006F29F8136F29F701F801F901FA017A087B
:1002E000BC007908BB007808BA007708B9008E30E6
:1002F000F7003908F7023A08F9003B08F800F91747
:10030000F70803198E290310F908031D8A29F80834
:1003100003198E29F90CF80CF70B8329BA1F9529BC
:10032000F809F909F80A0319F90A7808B2000C1358
:100330008A110A123D28AC0A033081000B118A1180
:100340000A123D28AD0A8E010B308F00DC308E0082
:1003500000000C108A110A123D28AE0A8C108A1176
:100360000A123D28D434ED3272183A10A53A200012
:10037000D434ED32F2183A10A53A2000D434ED32DC
:1003800072193A10A53A20004E24C9225410C427ED
:100390003A10A53A2010000038308400831300087A
:1003A0000319DF290630F800F701F70BD529F80B00
:1003B000D4297B30F700F70BDB29800BD22908000A
:1003C0002B132B088316870083120713AB122B08FD
:1003D00083168700831287128316880183123308DD
:1003E0008800AB132B088316870083128717AB1383
:1003F0002B0883168700831287130130B800CC21A5
:1004000008003830B300E0210530B800CC210C30B2
:10041000B300E0210130B300E0210230B800CC216C
:100420008A110A127A2B2C084C3C03181E2A4D30D4
:10043000AC02AF0A2F083C3C0319AF012D08093C60
:100440000318292A0A30AD02B00A30083C3C0319CF
:10045000B0012E084C3C0318342A4D30AE02B10ACC
:1004600031083C3C0319B1018A110A12B92B2B1334
:100470002B088316870083120713AB122B088316F1
:100480008700831287168316880183123708880035
:10049000AB132B088316870083128717AB132B0827
:1004A00083168700831287130130B800CC2108001F
:1004B0000B08B4008B13831603178C170C14000061
:1004C000000083120313B41B8B1703188F2A031722
:1004D0000C087F390313B40003170D080313B5008C
:1004E00003170F080313B6003408B7003722350886
:1004F00003178D000313360803178F0003130B082F
:10050000B7008B13831603178C170C140000000020
:1005100083120313B71B8B17B30B8F2AAE2A031753
:100520000C0D0E0D7F390313B40003170D080313D0
:10053000B50003170F080313B6003408B7003722BD
:10054000350803178D000313360803178F008D0A33
:1005500003198F0A03100313B30B582A0800360837
:10056000F80135020318B72A3508F700C32AF70146
:100570000830B700B50DF70D360877020318F700FD
:10058000F80DB70BBA2A080078083308B5006430B4
:10059000B600AF227708B30078083030031DD72AA1
:1005A000B41CDE2AB419DE2A341A2030DA2AB41137
:1005B00034123414F8077808B70037223308B5002E
:1005C0000A30B600AF227708B30078083030031D38
:1005D000EF2AB419F32A341CF32A341A2030F8070E
:1005E0007808B70037223030B3073308B700372216
:1005F00008008030B300E021B23003178D000130D5
:100600008F00031008300313B30058222F08B300E3
:100610001B30B400C4222030B7003722C030B300F2
:10062000E021B83003178D0001308F00031008302F
:100630000313B30058223008B3001B30B400C422A7
:100640002030B70037229430B300E021BE300317CA
:100650008D0001308F00031008300313B3005822BF
:100660003108B3001B30B400C4222030B700372259
:10067000D430B300E021C43003178D0001308F0067
:1006800003100A300313B30058223208B3001B30A2
:10069000B400C4222030B70037222030B700372200
:1006A0008A110A12BB2B03081F398300FF30AB00ED
:1006B000AC01AD01AE01AF01B001B101831603176A
:1006C0000908C039890003131F129F120030031755
:1006D000880083128701880189018313FF30831604
:1006E00003138500003087008312AB008316880057
:1006F0008312012A83160108C039073881000330AC
:10070000831281008B16353090008E010B308F00E4
:10071000DC308E00000083160C147830F8000638A8
:1007200083129200FE30831692008312910083168A
:100730008C1483121F139F1783169F1783121F1485
:10074000831603170908C039890003131F129F126B
:100750000130031788000030F800831203131F08CC
:10076000C33978049F0083160C17C03083128B04A2
:0A077000132A9F14F92AB82B630026
:04400E00E22FFF3F5F
:00000001FF
;PIC16F887
;CRC=4D28  CREATED="25-Apr-23 00:40"
