:1000000003308A00602B0000363084008313000820
:10001000031917280230F800F701F70B0D28F80B29
:100020000C289730F700F70B1328800B0A280800DC
:10003000831609148312091832281430B6000420DC
:1000400083160914831209183128B40A8316091477
:100050008312091C262834080B3C031D312801306B
:10006000B4004A2883168914831289184A28143048
:10007000B600042083168914831289184A28B40311
:10008000831689148312891C4028B408031D4A284A
:100090000A30B4000800831685019C308312850065
:1000A0000800A301A201A101A001A308031D9B2830
:1000B000A208031D9B28A108031D9B282008023CC1
:1000C000031C9B28A701A601FF30A500A4008316EE
:1000D0008801831224088800BA010030B500831615
:1000E0008701831225088700C830B6000420182035
:1000F000A701A601A501A401831688018312240883
:100100008800BA010030B5008316870183122508E4
:100110008700C830B600042018204B20340B9128EB
:1001200092289B280130A0070318A10A0319A20AEC
:100130000319A30A55288A110A12A62BA701A601A2
:10014000A5010130A400A301A201A101A001A308FF
:10015000031DF128A208031DF128A108031DF128A1
:100160002008103C031CF1280310240DB700250DB6
:10017000B800260DB900270DBA0001303707A400DA
:100180003808A500003003180130A5073908A6007B
:10019000003003180130A6073A08A7000030031802
:1001A0000130A70783168801831224088800BA014A
:1001B0000030B50083168701831225088700C830F8
:1001C000B600042018204B203408023C031DF128FF
:1001D0000130A0070318A10A0319A20A0319A30AF0
:1001E000A7288A110A12A62BA301A201A101A0012E
:1001F000A308031D3429A208031D3429A108031DE7
:1002000034292008103C031C3429A701A601FF3023
:10021000A500A4002008B600031915290310A70C97
:10022000A60CA50CA40CB60B0E298316880183120C
:1002300024088800BA010030B500831687018312B4
:1002400025088700C830B600042018204B20340849
:10025000033C031D34290130A0070318A10A031928
:10026000A20A0319A30AF8288A110A12A62BA301CD
:10027000A201A101A001A308031D8329A208031D57
:100280008329A108031D83292008183C031C832906
:10029000FA01F901FF30F800F7002008B600031951
:1002A00058290310FA0CF90CF80CF70CB60B51296D
:1002B0007708A400A4097808A500A5097908A60074
:1002C000A6097A08A700A7093408043C031D83295E
:1002D00083168801831224088800BA010030B50013
:1002E00083168701831225088700C830B6000420D2
:1002F00018204B200130A0070318A10A0319A20AF5
:100300000319A30A3B298A110A12A62BA301A201F1
:10031000A101A001A308031DC629A208031DC62927
:10032000A108031DC6292008103C031CC629A701EB
:10033000A601FF30A500A4002008B6000319A729D4
:100340000310A40DA50DA60DA70DB60BA0298316AD
:100350008801831224088800BA010030B500831692
:100360008701831225088700C830B60004201820B2
:100370004B203408053C031DC6290130A007031893
:10038000A10A0319A20A0319A30A8A298A110A12C7
:10039000A62BA301A201A101A001A308031D092A04
:1003A000A208031D092AA108031D092A2008103CE0
:1003B000031C092AA701A601A5010130A4002008F9
:1003C000B6000319EA290310A40DA50DA60DA70D6B
:1003D000B60BE32983168801831224088800BA012A
:1003E0000030B50083168701831225088700C830C6
:1003F000B600042018204B203408063C031D092AAF
:100400000130A0070318A10A0319A20A0319A30ABD
:10041000CD298A110A12A62BA301A201A101A001D4
:10042000A308031D4D2AA208031D4D2AA108031D80
:100430004D2A2008103C031C4D2AA701A60180303C
:10044000A5000130A4002008B60003192E2A0310CD
:10045000A70CA60CA50CA40CB60B272A83168801A2
:10046000831224088800BA010030B5008316870182
:10047000831225088700C830B600042018204B20BE
:100480003408073C031D4D2A0130A0070318A10AB8
:100490000319A20A0319A30A102A8A110A12A62B09
:1004A000A301A201A101A001A308031D902AA20893
:1004B000031D902AA108031D902A2008183C031C44
:1004C000902AA701A601A5010730A4002008B600C4
:1004D0000319712A0310A40DA50DA60DA70DB60BC7
:1004E0006A2A83168801831224088800BA01003022
:1004F000B50083168701831225088700C830B6002F
:10050000042018204B203408083C031D902A013099
:10051000A0070318A10A0319A20A0319A30A542A5F
:100520008A110A12A62BA301A201A101A001A3080E
:10053000031DD32AA208031DD32AA108031DD32A11
:100540002008103C031CD32AA701A601E030A50017
:10055000A4012008B6000319B42A0310A70CA60CA6
:10056000A50CA40CB60BAD2A8316880183122408AF
:100570008800BA010030B500831687018312250870
:100580008700C830B600042018204B203408093CEE
:10059000031DD32A0130A0070318A10A0319A20AD8
:1005A0000319A30A972A8A110A12A62BAB01AA01E2
:1005B000A901A801A301A201A101A001A308031D93
:1005C0005D2BA208031D5D2BA108031D5D2B2008D8
:1005D0000F3C031C5D2BB301B2018030B100B001B0
:1005E000AF01AE01AD01AC012008103CF700F801ED
:1005F0002108031C210FF802F9012208031C220F15
:10060000F902FA012308031C230FFA022F087A02C9
:10061000031C4C2B031D1C2B2E087902031C4C2B96
:10062000031D1C2B2D087802031C4C2B031D1C2BB7
:1006300077082C0203184C2B30082804A40031083A
:100640002904A50032082A04A60033082B04A700B9
:1006500034080A3C031D4C2B83168801831224089E
:100660008800BA010030B50083168701831225087F
:100670008700C830B600042018204B200310B30CAC
:10068000B20CB10CB00C0130AC070318AD0A031961
:10069000AE0A0319AF0AF42A2708AB002608AA00FD
:1006A0002508A9002408A8000130A0070318A10A02
:1006B0000319A20A0319A30ADE2A8A110A12A62B19
:1006C00003081F398300713083168F0090010F08D3
:1006D00001308312B400FF30B500831603170908F8
:1006E000C039890003131F129F12003003178800BE
:1006F0008312870188018901831300308316031355
:10070000880087008312B5008316850086000914CF
:10071000891009118911013083123402F63E031841
:10072000A62B0A3EA92B5128A62B9E28A62BF428DF
:10073000A62B3729A62B8629A62BC929A62B0C2A3E
:10074000A62B502AA62B932AA62BD62A83168B2BB0
:1007500063000A148A140A118207932B952B972B96
:0E076000992B9B2B9D2B9F2BA12BA32BA52B05
:04400E00E42FFF3F5D
:00000001FF
;PIC16F887
;CRC=C92A  CREATED="11-Apr-23 14:15"
