:1000000002308A00642A0000FF00030E8301A10071
:100010000A08A0008A010408A2007708A300780853
:10002000A4007908A5007A08A60003170D08031399
:10003000A70003170F080313A80003170C080313E6
:10004000A90003170E080313AA00831383128C3030
:100050008400801E2D288C1A4E2822088400230834
:10006000F7002408F8002508F9002608FA002708F8
:1000700003178D000313280803178F0003132908A3
:1000800003178C0003132A0803178E00031320089C
:100090008A00210E8300FF0E7F0E09008A110A12CA
:1000A00051288C1E51281A08AF008C128A110A128E
:1000B0002D284E34E9327410E437A02565376810D6
:1000C000351DA012EC3A201020004E34E932741095
:1000D000E437A02565376810371DA012EC3A2010D0
:1000E00020004E34E9327410E437A02565376810DB
:1000F000351DA012EC3A201020004E34E932741065
:10010000E437A02565376810371DA012EC3A20109F
:1001100020000330B102031C972831308400831380
:1001200000080319972895289528800B9428080023
:100130008E30F7003408F8003308F900FA01F808A7
:10014000031DAC287908F800F9010830F702F80817
:10015000031DAC28F701B4280310F81BB328F90DD0
:10016000F80DF703AC28F8130800330803197A29AF
:10017000BF00370803197A29BF02031CC4287F3047
:10018000BF0703187A29CA288130BF02031C7A29C5
:1001900003197A293F08F700F801F901FA01BE01B5
:1001A0003408BD00BD173508BC003608BB00193047
:1001B000BF003A08BB020318ED280130BC02031847
:1001C000ED28BD020318ED28BE020318ED28BE0A73
:1001D000BD0ABC0A3A08BB071F293908BC0203182C
:1001E00008290130BD0203180829BE020318082996
:1001F000BE0ABD0A3908BC073A08BB07031C1F2901
:10020000BC0A031D1F29BD0A031D1F29BE0A1F2981
:1002100038088038BD0203181E290130BE020318B9
:100220001E29BE0A38088038BD073908BC07031CE0
:10023000FC28BD0A031DFC28BE0AFC287A14BF0B4B
:1002400022292D290310BB0DBC0DBD0DBE0D0310C1
:10025000FA0DF90DF80DC00DD928401C35290310F1
:10026000F80CF90CFA0CC00C3829F70303197A2999
:10027000C01B61290310BB0DBC0DBD0DBE0D3A089E
:10028000BB0203184D290130BC0203184D29BD02E1
:1002900003184D29BE02031C70293908BC0203183B
:1002A00058290130BD0203185829BE02031C7029C9
:1002B00038088038BD02031861290130BE02031CD2
:1002C0007029FA0A031D7029F90A031D7029F80A1A
:1002D000031D7029F70A03197A29F80CF90CFA0C96
:1002E0003408BF003808BF06BF1F7829F8177E29D9
:1002F000F8137E29F701F801F901FA0108008E30A0
:10030000F7003108F7023208F9003308F800F9174E
:10031000F708031996290310F908031D9229F80814
:1003200003199629F90CF80CF70B8B29B21F9D299C
:10033000F809F909F80A0319F90A08000B08B200CC
:100340008B13831603178C170C1400000000831204
:100350000313B21B8B170318D62903170C087F3918
:100360000313B20003170D080313B30003170F089C
:100370000313B40032080C1EBB299900330803177D
:100380008D000313340803178F0003130B08B50007
:100390008B13831603178C170C14000000008312B4
:1003A0000313B51B8B17B10BD629F62903170C0DB8
:1003B0000E0D7F390313B20003170D080313B300AA
:1003C00003170F080313B40032080C1EE529990027
:1003D000330803178D000313340803178F008D0AA9
:1003E00003198F0A03100313B10B9E290800B901EA
:1003F0000408B8003910831B3914320EF038B400E9
:10040000B407E23EB500323EB70032080F39B507F7
:10041000B507B707E93EB600B607B607310E0F3984
:10042000B607B707B60DB70DB709B70D31080F39C5
:10043000B707B40D0730B3000A30B707B603031C83
:100440001D2AB607B503031C212AB507B403031CF4
:10045000252AB407B303031C292A333084008313ED
:10046000073038053813840737300402031938176A
:100470000008F700031D442A381B442A381A4C2A66
:10048000B819442A2030472AB81538123030F707F7
:1004900077080C1E492A9900840A381F342A08005C
:1004A00031308400831300080319632A0630F800F2
:1004B000F701F70B592AF80B582A7B30F700F70B96
:1004C0005F2A800B562A080003081F398300831611
:1004D0000317871508300313990002309A00A630DD
:1004E0009800903083129800AF01FF30B00083165F
:1004F00003170908C039890003131F129F12003027
:100500000317880083128701880189018313FF3054
:10051000831603138500803087008312B000831692
:10052000091489140915891583121F139F1783163F
:100530009F1783121F14831603170908C0398900F7
:1005400003131F129F12A0300317880003138C1689
:10055000C03083128B042F08353C031D082B143048
:10056000F8001F08C33978049F00C830B100892003
:100570009F149F18B92A1E08F90083161E08F80058
:1005800079088312B2007808B1003208B400780804
:10059000B30098207A08B6007908B5007808B4004E
:1005A0007708B300AA30BA00F130B9000230B800C1
:1005B0008030B700B5207A08B4007908B300780815
:1005C000B2007708B1007F217908AC007808AB0051
:1005D000593003178D0000308F00031011300313C2
:1005E000B1009E21103084002C08B2002B08B1000D
:1005F000F72120300C1EFA2A990020300C1EFE2A0A
:10060000990020300C1E022B99006430B10050225A
:100610002F08373C031D652B1C30F8001F08C33919
:1006200078049F00C830B10089209F149F18162BB2
:100630001E08F90083161E08F80079088312B2001C
:100640007808B1003208B4007808B30098207A081E
:10065000B6007908B5007808B4007708B300AA306E
:10066000BA00F130B9000230B8008030B700B520D0
:100670007A08B4007908B3007808B2007708B100AE
:100680007F217908AE007808AD00653003178D0032
:1006900000308F00031011300313B1009E21103081
:1006A00084002E08B2002D08B100F72120300C1E66
:1006B000572B990020300C1E5B2B990020300C1E0C
:1006C0005F2B99006430B10050222F08413C031D7C
:1006D0001B2C1430F8001F08C33978049F00C83061
:1006E000B10089209F149F18732B1E08F9008316F0
:1006F0001E08F80079088312B2007808B1003208A9
:10070000B4007808B30098207A08B6007908B500DC
:100710007808B4007708B300AA30BA00F130B90005
:100720000230B8008030B700B5207A08B4007908EC
:10073000B3007808B2007708B1007F217908AC00D7
:100740007808AB00713003178D0000308F00031064
:1007500011300313B1009E21103084002C08B20028
:100760002B08B100F72120300C1EB42B990020304B
:100770000C1EB82B990020300C1EBC2B9900643045
:10078000B10050221C30F8001F08C33978049F00C4
:10079000C830B10089209F149F18CC2B1E08F90087
:1007A00083161E08F80079088312B2007808B10099
:1007B0003208B4007808B30098207A08B6007908A7
:1007C000B5007808B4007708B300AA30BA00F13059
:1007D000B9000230B8008030B700B5207A08B40004
:1007E0007908B3007808B2007708B1007F21790852
:1007F000AE007808AD007D3003178D0000308F000B
:10080000031011300313B1009E21103084002E0814
:10081000B2002D08B100F72120300C1E0D2C9900DC
:1008200020300C1E112C990020300C1E152C990024
:0A0830006430B1005022AB2A6300CF
:04400E00E22FFF3F5F
:00000001FF
;PIC16F887
;CRC=8E50  CREATED="06-May-23 15:41"
