:1000000005308A00EB2D0000C42720214927481025
:100010005424D527CE230000C427202AD22ACE2359
:100020002021492748102000D3204E105024C126FB
:100030003A10253675102000D424CD223A10803293
:100040004E24C9225410C4273A10253675102000BA
:10005000201000004E24C9225410C4273A1025361F
:1000600075102000201000003A308400831300082F
:10007000031947280630F800F701F70B3D28F80B65
:100080003C287B30F700F70B4328800B3A28080008
:10009000201320088316870083120713A01220085C
:1000A0008316870083128712831688018312300813
:1000B0008800A01320088316870083128717A013D7
:1000C000200883168700831287130130BA0034207A
:1000D00008003830B00048200530BA0034200C3019
:1000E000B00048200130B00048200230BA0034206F
:1000F0008A110A12172E20132008831687008312F4
:100100000713A01220088316870083128716831610
:100110008801831239088800A013200883168700FD
:1001200083128717A0132008831687008312871372
:100130000130BA00342008000B08B1008B1383167D
:1001400003178C170C140000000083120313B11B5B
:100150008B170318D32803170C087F390313B1003A
:1001600003170D080313B20003170F080313B3009E
:100170003108B9007B20320803178D0003133308C0
:1001800003178F0003130B08B4008B138316031798
:100190008C170C140000000083120313B41B8B1780
:1001A000B00BD328F22803170C0D0E0D7F39031363
:1001B000B10003170D080313B20003170F08031350
:1001C000B3003108B9007B20320803178D000313F8
:1001D000330803178F008D0A03198F0A03100313C6
:1001E000B00B9C280800B8010408B7003810831B26
:1001F0003814310EF038B300B307E23EB400323E9B
:10020000B60031080F39B407B407B607E93EB500A8
:10021000B507B507300E0F39B507B607B50DB60DE2
:10022000B609B60D30080F39B607B30D0730B20066
:100230000A30B607B503031C1929B507B403031C1C
:100240001D29B407B303031C2129B307B203031C00
:10025000252932308400831307303705371384078C
:1002600036300402031937170008F700031D402930
:10027000371B4029371A5229B71940292030432902
:10028000B71537123030F707B1010408B00031104C
:10029000831B31147708B9007B2030088400831356
:1002A00031188317840A371F30290800A208031D5C
:1002B0005D292108183C03185F29013081000108DD
:1002C000A201A1008030B0004820143003178D0037
:1002D00000308F0003100A300313B0009C20103050
:1002E00084002208B1002108B000F3202030B900BA
:1002F0007B202030B9007B208A110A12402E0B0887
:10030000B0008B13831603178C170C140000000029
:1003100083120313B01B8B1703170C087F390319C3
:10032000D3290313B00003170D080313B1000317FB
:100330000F080313B2003008B9007B2031080317FF
:100340008D000313320803178F0003130B08B3004B
:100350008B13831603178C170C14000000008312F4
:100360000313B31B8B1703170C0D0E0D7F390319E5
:10037000D3290313B00003170D080313B1000317AB
:100380000F080313B2003008B9007B2031080317AF
:100390008D000313320803178F008D0A03198F0A8B
:1003A00003137F290317031308003208F8013102F1
:1003B0000318DD293108F700E929F7010830B300F7
:1003C000B10DF70D320877020318F700F80DB30BE3
:1003D000E02908000C1C082A8E010B308F00DC304D
:1003E0008E000000A90A0C1029080A3C031D082AE7
:1003F000A901AC0A2C083C3C031D082AAB0A2B08B7
:100400003C3C031D082AAA0A2A08183C0319AA0121
:10041000C030B00048201C3003178D0000308F0022
:1004200003137F212A08B1000A30B200D5217808D1
:10043000B1000A30B200D52130307707B000B900E2
:100440007B202A08B1000A30B200D521303077076E
:10045000B000B9007B203A30B9007B202B08B100F6
:100460000A30B200D5217808B1000A30B200D52197
:1004700030307707B000B9007B202B08B1000A307C
:10048000B200D52130307707B000B9007B203A3078
:10049000B9007B202C08B1000A30B200D5217808C1
:1004A000B1000A30B200D52130307707B000B90072
:1004B0007B202C08B1000A30B200D52130307707FC
:1004C000B000B9007B208A110A12412E83168514D0
:1004D000831285187A2A1430BA00342083168514C2
:1004E000831285187A2A0130AD068316851483128B
:1004F000851C752A8A110A12422ED430B000482079
:100500002D18892A043003178D0000308F00031343
:100510007F212D1C922A0C3003178D0000308F0094
:1005200003137F218A110A12432E8E30F7003508FB
:10053000F8003408F900FA01F808031DA92A79081F
:10054000F800F9010830F702F808031DA92AF7019D
:10055000B12A0310F81BB02AF90DF80DF703A92AE8
:10056000F813080032080319772BBE003608031968
:10057000772BBE02031CC12A7F30BE070318772BDE
:10058000C72A8130BE02031C772B0319772B3E0844
:10059000F700F801F901FA01BD013308BC00BC17EE
:1005A0003408BB003508BA001930BE003908BA0259
:1005B0000318EA2A0130BB020318EA2ABC02031816
:1005C000EA2ABD020318EA2ABD0ABC0ABB0A390896
:1005D000BA071C2B3808BB020318052B0130BC02DC
:1005E0000318052BBD020318052BBD0ABC0A3808E9
:1005F000BB073908BA07031C1C2BBB0A031D1C2BA5
:10060000BC0A031D1C2BBD0A1C2B37088038BC02FA
:1006100003181B2B0130BD0203181B2BBD0A370822
:100620008038BC073808BB07031CF92ABC0A031D25
:10063000F92ABD0AF92A7A14BE0B1F2B2A2B0310A4
:10064000BA0DBB0DBC0DBD0D0310FA0DF90DF80D63
:10065000BF0DD62A3F1C322B0310F80CF90CFA0CF4
:10066000BF0C352BF7030319772BBF1B5E2B031031
:10067000BA0DBB0DBC0DBD0D3908BA0203184A2BCB
:100680000130BB0203184A2BBC0203184A2BBD02DF
:10069000031C6D2B3808BB020318552B0130BC021C
:1006A0000318552BBD02031C6D2B37088038BC0284
:1006B00003185E2B0130BD02031C6D2BFA0A031DCB
:1006C0006D2BF90A031D6D2BF80A031D6D2BF70A1C
:1006D0000319772BF80CF90CFA0C3308BE00370815
:1006E000BE06BE1F752BF8177B2BF8137B2BF7016B
:1006F000F801F901FA0108008E30F7003408F7021A
:100700003508F9003608F800F917F7080319932B94
:100710000310F908031D8F2BF8080319932BF90C0C
:10072000F80CF70B882BB51F9A2BF809F909F80A72
:100730000319F90A08002D18F42B9F149F189E2BFB
:100740001E08F90083161E08F80079088312B1000C
:100750007808B0003108B5007808B40095227A080E
:10076000B5007908B4007808B3007708B200AA3061
:10077000B900F130B8000230B7008030B600B222C4
:100780007A08B7007908B6007808B5007708B40091
:100790007C237908A4007808A3009430B000482096
:1007A000203003178D0000308F0003100A30031330
:1007B000B0009C20103084002408B1002308B00051
:1007C000F3202030B9007B202030B9007B20DF30BF
:1007D000B9007B204330B9007B20283003178D00FF
:1007E00000308F0003137F212D1CE82D9F149F18CC
:1007F000F72B1E08F90083161E08F80079088312EB
:10080000B1007808B0003108B5003008B400952276
:100810007A08B5007908B4007808B3007708B20008
:10082000AA30B900F130B8000230B7008030B6000D
:10083000B2227A08B3007908B2007808B1007708CC
:10084000B0002608B5002508B400952283107A0868
:10085000B7007908B6007808B5007708B400330807
:10086000BB003208BA003108B9003008B800803047
:100870008318B906BE01BF013508BD003908BD06A1
:1008800034080319272DBC00F70038080319302D50
:10089000BC020319CC2C031C8A2C3908C200C217D5
:1008A0003A08C1003B08C000BF010310C20CC10CD4
:1008B000C00CBF0CBC0B542CBD1F612C3E14442D2E
:1008C0003E103C103E16373084008313592D3E12E3
:1008D000BD1B742C3C1C7F2CC20CC10CC00CBF0C6B
:1008E000F70A03193F2D7F2CC21B822C0310BF0D6A
:1008F000C00DC10DC20DF70303193F2D742C3E1717
:10090000EC2C3E133508BD00BD1F882CC217382DB6
:10091000C213382D3808BC00F7003408BC02350873
:10092000C200C2173608C1003708C000BF0103105B
:10093000C20CC10CC00CBF0CBC0B962CBD1FA32C51
:10094000BE14442DBE103C10BE163B3084008313F1
:10095000592DBE12BD1BB62C3C1CC12CC20CC10CA7
:10096000C00CBF0CF70A03193F2DC12CC21BC42CAD
:100970000310BF0DC00DC10DC20DF70303193F2DAC
:10098000B62CBE17EC2CBE133908BD00BD1FCA2CF7
:10099000C217382DC213382D3908C200C2173A08C1
:1009A000C1003B08C000BD1FD92CC2133E15442D09
:1009B0003E11BF013C10373084008313592DBD1BFD
:1009C000022D3508BD003C1CEC2CC20CC10CC00C27
:1009D000BF0CF70A03193F2DBF1FFD2CC00A031DD2
:1009E000FD2CC10A031DFD2CC20A031DFD2CC20CE7
:1009F000C10CC00CF70A03193F2D3E1B812CBE1BF6
:100A0000C32C212D8030C206C21F0A2D442D390867
:100A1000BD00172D3508BD00C208031D172DC108E4
:100A2000031D172DC008031D172DF701382DC21BFC
:100A3000212D0310BF0DC00DC10DC20DF70B172DD9
:100A40003F2DBD1F252DC217382DC213382D380854
:100A5000F7003908C2003A08C1003B08C000382D31
:100A60003408F7003508C2003608C1003708C00056
:100A70004208F8004108F9004008FA00772DF70114
:100A8000F801F901FA01772DBF01C009C109C209B6
:100A9000BF09BF0A031D522DC00A031D522DC10AF2
:100AA0000319C20A3E18602CBE18A22C3E19D82C7D
:100AB000072D0008C007031C632DC10A031D632D09
:100AC000C20A03193C1484030008C107031C6B2DE0
:100AD000C20A03193C1484030008801F803AC2072D
:100AE00003183C143E1A672CBE1AA92CDF2C7A0876
:100AF000B7007908B6007808B5007708B4007C2301
:100B00007908A6007808A500A70A0319A80AA8086A
:100B1000031D8E2D2708633C0318C12D2608B10044
:100B20002508B000B3016430B200F801F901F70103
:100B3000FA013308031D9F2D32080319B92D103017
:100B4000B4000310B00DB10DF70DFA0D33087A02A1
:100B5000031DAC2D32087702031CB52D3208F702B5
:100B6000031CFA033308FA020314F80DF90DB40B51
:100B7000A12D7908A4007808A300A601A501A80169
:100B8000A7019430B00048202A3003178D000030B0
:100B90008F0003100A300313B0009C201030840033
:100BA0002408B1002308B000F3202030B9007B20D6
:100BB0002030B9007B20DF30B9007B204330B90002
:100BC0007B20323003178D0000308F0003137F210C
:100BD0008A110A12442E03081F398300FF30A00037
:100BE000A601A501A801A701A901AA01AB01AC01B9
:100BF0002D10AF01AE01831603170908C039890013
:100C000003131F129F1200300317880083128701FD
:100C1000880189018313FF30831603138500003098
:100C200087008312A0008316880083126928831628
:100C30000108C739383881008312810135309000AE
:100C40008E010B308F00DC308E0000001F139F17C9
:100C500083169F1783121F14831603170908C039C0
:100C6000890003131F129F12013003178800003000
:100C7000F800831203131F08C33978049F00562914
:0C0C8000EA29662A7D2A9B2B3F2E630088
:04400E00E22FFF3F5F
:00000001FF
;PIC16F887
;CRC=995A  CREATED="16-Apr-23 10:24"
