:1000000003308A00EE2B00000A108A100A118207C2
:10001000C034F934A434B034993492348234F8348E
:1000200080349034A02941274710C4204E10311944
:10003000202645220000202A412A20224127A018FC
:100040003210CC224400A02941274710C424432465
:10005000A0183210CC224400202A412A2022C92193
:1000600048103119202645220001201000012010DF
:1000700000012010000120100001201000012010BC
:100080000001201000012010000032308400831392
:100090000008031958280230F800F701F70B4E2822
:1000A000F80B4D289730F700F70B5428800B4B289E
:1000B0000800201320088316870083120713A0125C
:1000C0002008831687008312871283168801831203
:1000D0002E088800A0132008831687008312871734
:1000E000A013200883168700831287130130B20003
:1000F000452008003830AE0059200530B2004520B8
:100100000C30AE0059200130AE0059200230B20050
:1001100045208A110A121E2C83160914831209180D
:10012000AA281430B2004520831609148312091836
:10013000AA28A70A0319A80A831609148312091CFE
:100140009C282708093C031DAA28A808031DAA28E3
:10015000A801A7010800A708031DC528A808031DBA
:10016000C528AA01A9012A08C33C031CC228031DF3
:10017000BD282908503C031CC2288C20A90A031959
:10018000AA0AB3280130B2004520270BDE28A808B0
:10019000031DDE28AA01A9012A08273C031CDB282D
:1001A000031DD6282908103C031CDB288C20A90A33
:1001B0000319AA0ACC280130B20045202708023CC6
:1001C000031DF928A808031DF928AA01A9012A0876
:1001D000033C031CF628031DF1282908E83C031CF6
:1001E000F6288C20A90A0319AA0AE7280130B200D0
:1001F00045202708033C031D1129A808031D1129C8
:10020000AA01A901AA08031D0E292908053C031CFF
:100210000E298C20A90A0319AA0A02290130B2006A
:1002200045202708043C031D2929A808031D292966
:10023000AA01A901AA08031D26292908033C031CB9
:1002400026298C20A90A0319AA0A1A290130B2000A
:1002500045202708053C031D3329A808031D332921
:10026000C830B20045202708063C031D3D29A808D8
:10027000031D3D296430B20045202708073C031DBB
:100280004729A808031D47293230B2004520270816
:10029000083C031D5129A808031D51291430B20040
:1002A00045202708093C031D5B29A808031D5B297D
:1002B0000130B20045200800831609158312091980
:1002C00074291430B20045208316091583120919C8
:1002D0007329AB0A831609158312091D6A292B0895
:1002E000043C0319AB018D298316891483128918E4
:1002F0008D291430B2004520831689148312891881
:100300008D29AB03831689148312891C82292B083B
:10031000FF3C031D8D290330AB0008002808AF0007
:100320002708AE00B1010A30B0002F08310680392D
:10033000B300AF1FA029AE09AF09AE0A0319AF0A77
:10034000B11FA729B009B109B00A0319B10AF80110
:10035000F901F701FA013108031DB1293008031929
:10036000CB291030B2000310AE0DAF0DF70DFA0D12
:1003700031087A02031DBE2930087702031CC72901
:100380003008F702031CFA033108FA020314F80DCF
:10039000F90DB20BB329B31FD229F809F909F80AEC
:1003A0000319F90A7708AE007A08AF00FA00770857
:1003B0000420B000831686018312300886000800EE
:1003C000201320088316870083120713A012200829
:1003D00083168700831287168316880183123108DB
:1003E0008800A01320088316870083128717A013A4
:1003F000200883168700831287130130B20045203E
:1004000008000B08AE008B13831603178C170C140F
:100410000000000083120313AE1B8B1703170C0898
:100420007F390319552A0313AE0003170D08031370
:10043000AF0003170F080313B0002E08B100E0212E
:100440002F0803178D000313300803178F000313C1
:100450000B08B1008B13831603178C170C140000C4
:10046000000083120313B11B8B1703170C0D0E0D25
:100470007F390319552A0313AE0003170D08031320
:10048000AF0003170F080313B0002E08B100E021DE
:100490002F0803178D000313300803178F008D0AF0
:1004A00003198F0A0313012A03170313080083306B
:1004B000AE005920123003178D0000308F00031357
:1004C0000122C330AE0059201B3003178D000030CD
:1004D0008F00031301229730AE00592023300317F9
:1004E0008D0000308F0003130122D730AE00592059
:1004F0002C3003178D0000308F0003130122AB084E
:10050000031D9C2AC030AE005920353003178D00E2
:1005100000308F0003130122D430AE005920373051
:1005200003178D0000308F00031301228030AE00CE
:1005300059207E30B100E0212B0BB82A9430AE0058
:100540005920393003178D0000308F00031301222A
:100550008030AE0059203B3003178D0000308F00F3
:1005600003130122C030AE0059207E30B100E021DB
:100570002B08023C031DD62AD430AE0059203D3052
:1005800003178D0000308F0003130122C030AE002E
:1005900059203F3003178D0000308F0003130122D4
:1005A0009430AE0059207E30B100E0212B08033C8E
:1005B000031DF42A8030AE005920413003178D000E
:1005C00000308F00031301229430AE0059204330D5
:1005D00003178D0000308F0003130122D430AE00CA
:1005E00059207E30B100E0210800A201A101A21B28
:1005F000002BA208031D312B21080C3C031C312BBE
:100600000F30FA00FF30F9002108F70003190D2B15
:100610000310F90DFA0DF70B082B7908FF3AA30028
:10062000FF307A06A4008316850183122308850013
:100630002408AE00AF010F30AE05AF010030A000BE
:100640008316870183122E0887008C20AB205C2143
:100650008E215722AB08031D312BA10A0319A20AD0
:10066000F72A8A110A122B2CA201A101A21B3F2BEF
:10067000A208031D6F2B21080C3C031C6F2B0F30AD
:10068000FA00FF30F9002108F70003194C2B031082
:10069000F90DFA0DF70B472B7908A3007A08A4008F
:1006A000831685018312230885002408AE00AF015C
:1006B0000F30AE05AF010030A00083168701831212
:1006C0002E0887005C218C20AB208E2157222B0B1B
:1006D0006A2B6B2B6F2BA10A0319A20A362B8A11E6
:1006E0000A122B2CA201A101A21B7D2BA208031D23
:1006F000AC2B21080C3C031CAC2BFA010130F90097
:100700002108F7000319892B0310F90DFA0DF70BD7
:10071000842B7908A3007A08A4008316850183122C
:10072000230885002408AE00AF010F30AE05AF01ED
:100730000030A0008316870183122E0887005C21F9
:100740008C20AB208E2157222B08023C031DAC2BA2
:10075000A10A0319A20A742B8A110A122B2CA201D6
:10076000A101A21BBA2BA208031DEB2B21080C3CF4
:10077000031CEB2BFA010130F9002108F7000319E3
:10078000C62B0310F90DFA0DF70BC12B7908FF3AB0
:10079000A300FF307A06A400831685018312230884
:1007A00085002408AE00AF010F30AE05AF01003068
:1007B000A0008316870183122E0887005C218C20FD
:1007C000AB208E2157222B08033C031DEB2BA10AE3
:1007D0000319A20AB12B8A110A122B2C03081F3904
:1007E0008300713083168F0090010F08FF30831251
:1007F000A000A801A701AB01AD01AC01831603174E
:100800000908C039890003131F129F120030031713
:1008100088008312870188018901831300308316C1
:100820000313850087008312A000831686008800CA
:10083000091489140915891583127A282B08FC3E9E
:1008400003182B2C043E2D2CF52A2B2C342B2B2C6F
:10085000722B2B2CAF2B1E2C63000A108A100A154A
:0A0860008207242C262C282C2A2CB9
:04400E00E42FFF3F5D
:00000001FF
;PIC16F887
;CRC=E5A0  CREATED="06-Apr-23 23:37"
