:1000000004308A00482C00000A108A100A11820766
:10001000EF34DF34BF347F343D3084008313000875
:1000200003191F280230F800F701F70B1528F80B09
:1000300014289730F700F70B1B28800B12280800B4
:10004000FF30BD00BE013E08033C031C66283E088D
:100050000420BF008316860183123F0886008316A2
:100060000614831206183A283E0DBD00BD0DFC3063
:10007000BD052F28831686148312861848283E0D46
:10008000F700F70DFC30F7057708013EBD003A2870
:10009000831606158312061956283E0DF700F70D34
:1000A000FC30F7057708023EBD0048288316861508
:1000B0008312861964283E0DF700F70DFC30F70512
:1000C0007708033EBD005628BE0A23283D08F800E5
:1000D000B701B601B5017808B400B408031D7D2846
:1000E000B508031D7D28B608031D7D28B708031D2C
:1000F0007D28BB01BA01B901B801340B8D28B508C0
:10010000031D8D28B608031D8D28B708031D8D28F3
:10011000BB01BA01B9010130B8003408023C031D2B
:100120009F28B508031D9F28B608031D9F28B70800
:10013000031D9F28BB01BA01B9010230B800340881
:10014000033C031DB128B508031DB128B608031DE3
:10015000B128B708031DB128BB01BA01B9010330AA
:10016000B8003408043C031DC328B508031DC32888
:10017000B608031DC328B708031DC328BB01BA0175
:10018000B9010430B8003408053C031DD528B50872
:10019000031DD528B608031DD528B708031DD5288B
:1001A000BB01BA01B9010530B8003408063C031D93
:1001B000E728B508031DE728B608031DE728B70898
:1001C000031DE728BB01BA01B9010630B8003408A5
:1001D000073C031DF928B508031DF928B608031DBF
:1001E000F928B708031DF928BB01BA01B901073086
:1001F000B8003408083C031D0B29B508031D0B2962
:10020000B608031D0B29B708031D0B29BB01BA0152
:10021000B9010830B8003408093C031D1D29B50890
:10022000031D1D29B608031D1D29B708031D1D291F
:10023000BB01BA01B9010930B8000800A301A2014D
:10024000A101A001A308031D7129A208031D7129A2
:10025000A108031D71292008023C031C7129A70174
:10026000FF30A600A500A40083168801831224088D
:100270008800C1010030BC00831687018312250865
:100280008700C001C10183168501831226088500FD
:100290003230BD000C202020A701A601A501A40139
:1002A00083168801831224088800C1010030BC0035
:1002B00083168701831225088700C001C1018316B8
:1002C00085018312260885003230BD000C202020D5
:1002D0000130A0070318A10A0319A20A0319A30AEF
:1002E00022298A110A12D02CA701A601A5010130EA
:1002F000A400A301A201A101A001A308031DC92913
:10030000A208031DC929A108031DC9292008183CFA
:10031000031CC9290310240DBE00250DBF00260DA6
:10032000C000270DC10001303E07A4003F08A50012
:10033000003003180130A5074008A600003003185C
:100340000130A6074108A700003003180130A707B5
:1003500083168801831224088800C1010030BC0084
:1003600083168701831225088700C001C101831607
:1003700085018312260885003230BD000C20202024
:100380000130A0070318A10A0319A20A0319A30A3E
:100390007D298A110A12D02CA301A201A101A0017A
:1003A000A308031D0E2AA208031D0E2AA108031D7F
:1003B0000E2A2008183C031C0E2AA701FF30A600B5
:1003C000A500A4002008BD000319ED290310A70C07
:1003D000A60CA50CA40CBD0BE6298316880183127C
:1003E00024088800C1010030BC00831687018312F5
:1003F00025088700C001C1018316850183122608E4
:1004000085003230BD000C2020200130A0070318E9
:10041000A10A0319A20A0319A30AD0298A110A12F0
:10042000D02CA301A201A101A001A308031D5F2AF2
:10043000A208031D5F2AA108031D5F2A2008183C9B
:10044000031C5F2AFA01FF30F900F800F7002008CA
:10045000BD000319322A0310FA0CF90CF80CF70C42
:10046000BD0B2B2A7708A400A4097808A500A509CC
:100470007908A600A6097A08A700A70983168801AB
:10048000831224088800C1010030BC008316870154
:10049000831225088700C001C101831685018312DC
:1004A000260885003230BD000C2020200130A00736
:1004B0000318A10A0319A20A0319A30A152A8A110B
:1004C0000A12D02CA301A201A101A001A308031DBF
:1004D000A42AA208031DA42AA108031DA42A2008F7
:1004E000183C031CA42AA701FF30A600A500A40005
:1004F0002008BD000319832A0310A40DA50DA60D25
:10050000A70DBD0B7C2A831688018312240888005E
:10051000C1010030BC0083168701831225088700C3
:10052000C001C1018316850183122608850032307F
:10053000BD000C2020200130A0070318A10A0319D8
:10054000A20A0319A30A662A8A110A12D02CA3014F
:10055000A201A101A001A308031DE92AA208031D0D
:10056000E92AA108031DE92A2008183C031CE92AEE
:10057000A701A601A5010130A4002008BD000319B0
:10058000C82A0310A40DA50DA60DA70DBD0BC12AE9
:1005900083168801831224088800C1010030BC0042
:1005A00083168701831225088700C001C1018316C5
:1005B00085018312260885003230BD000C202020E2
:1005C0000130A0070318A10A0319A20A0319A30AFC
:1005D000AB2A8A110A12D02CA301A201A101A00109
:1005E000A308031D2F2BA208031D2F2BA108031DF9
:1005F0002F2B2008183C031C2F2BA7018030A600AE
:10060000A5010130A4002008BD0003190E2B031022
:10061000A70CA60CA50CA40CBD0B072B83168801F8
:10062000831224088800C1010030BC0083168701B2
:10063000831225088700C001C1018316850183123A
:10064000260885003230BD000C2020200130A00794
:100650000318A10A0319A20A0319A30AF02A8A118E
:100660000A12D02CA301A201A101A001A308031D1D
:10067000742BA208031D742BA108031D742B2008E2
:10068000183C031C742B2020A701A601A5010730EC
:10069000A4002008BD000319542B0310A40DA50DC0
:1006A000A60DA70DBD0B4D2B8316880183122408C0
:1006B0008800C1010030BC00831687018312250821
:1006C0008700C001C10183168501831226088500B9
:1006D0003230BD000C200130A0070318A10A031915
:1006E000A20A0319A30A362B8A110A12D02CA301DD
:1006F000A201A101A001A308031DB92BA208031D9B
:10070000B92BA108031DB92B2008183C031CB92BD9
:10071000A701E030A600A501A4012008BD0003192F
:10072000982B0310A70CA60CA50CA40CBD0B912BA9
:1007300083168801831224088800C1010030BC00A0
:1007400083168701831225088700C001C101831623
:1007500085018312260885003230BD000C20202040
:100760000130A0070318A10A0319A20A0319A30A5A
:100770007B2B8A110A12D02CAB01AA01A901A80176
:10078000A301A201A101A001A308031D452CA208F9
:10079000031D452CA108031D452C2008173C031CF4
:1007A000452CB3018030B200B101B001AF01AE0100
:1007B000AD01AC012008183CF700F8012108031C2A
:1007C000210FF802F9012208031C220FF902FA0195
:1007D0002308031C230FFA022F087A02031C342C6F
:1007E000031D022C2E087902031C342C031D022C3D
:1007F0002D087802031C342C031D022C77082C02D0
:100800000318342C30082804A40031082904A5005A
:1008100032082A04A60033082B04A7008316880197
:10082000831224088800C1010030BC0083168701B0
:10083000831225088700C001C10183168501831238
:10084000260885003230BD000C200310B30CB20C1A
:10085000B10CB00C20200130AC070318AD0A03190D
:10086000AE0A0319AF0ADA2B2708AB002608AA0044
:100870002508A9002408A8000130A0070318A10A30
:100880000319A20A0319A30AC42B8A110A12D02C35
:1008900003081F398300713083168F0090010F0801
:1008A000FF308312BC00831603170908C039890082
:1008B00003131F129F120030031788008312870151
:1008C0008801890183130030831603138800870091
:1008D0008312BC0083168500FF308600091489103E
:1008E0000911891183123808F7003908FA007A08CB
:1008F000031D7D2CF7080319BD2C7A08031D842CD9
:10090000013077020319BF2C7A08031D8B2C0230AB
:1009100077020319C12C7A08031D922C0330770249
:100920000319C32C7A08031D992C0430770203198C
:10093000C52C7A08031DA02C053077020319C72C9B
:100940007A08031DA72C063077020319C92C7A08F0
:10095000031DAE2C073077020319CB2C7A08031D38
:10096000B52C083077020319CD2C7A08031DBC2C56
:10097000093077020319CF2CD02C1E29D02C7429D2
:10098000D02CCC29D02C112AD02C622AD02CA72AEA
:10099000D02CEC2AD02C322BD02C772BD02CBC2B6B
:0409A000732C630051
:04400E00E42FFF3F5D
:00000001FF
;PIC16F887
;CRC=260C  CREATED="01-Apr-23 11:36"
