:1000000003308A009E2B000020100000CC24CD2459
:10001000541D25322000C3275527D422521D2532D6
:100020002000D424CD223A1000012010000120101D
:100030000000CD27C4223A104B244F274700CD277C
:10004000C4223A10432449274810C7244F00CD2723
:10005000C4223A104324492748105024552A00014D
:10006000CD27C4223A10432449274810472444008E
:10007000C3204F10D6204E10D6244E24000032301C
:10008000840083130008031952280630F800F70192
:10009000F70B4828F80B47287B30F700F70B4E2862
:1000A000800B452808002013200883168700831240
:1000B0000713A01220088316870083128712831665
:1000C000880183122B088800A0132008831687005C
:1000D00083128717A01320088316870083128713C3
:1000E0000130B2003F2008003830AB00532005300B
:1000F000B2003F200C30AB0053200130AB00532046
:100100000230B2003F208A110A12CC2B20132008A3
:100110008316870083120713A01220088316870016
:100120008312871683168801831231088800A01372
:1001300020088316870083128717A01320088316D0
:100140008700831287130130B2003F2008000B089C
:10015000AB008B13831603178C170C1400000000E0
:1001600083120313AB1B8B1703170C087F3903197A
:10017000FB280313AB0003170D080313AC00031790
:100180000F080313AD002B08B10086202C080317BD
:100190008D0003132D0803178F0003130B08AE0007
:1001A0008B13831603178C170C14000000008312A6
:1001B0000313AE1B8B1703170C0D0E0D7F3903199C
:1001C000FB280313AB0003170D080313AC00031740
:1001D0000F080313AD002B08B10086202C0803176D
:1001E0008D0003132D0803178F008D0A03198F0A42
:1001F0000313A728031703130800D430AB005320C0
:10020000A108031D0A29193003178D0000308F0043
:100210000313A720210B13291F3003178D00003073
:100220008F000313A7202108023C031D1E2927303D
:1002300003178D0000308F000313A7202108033C13
:10024000031D2929303003178D0000308F00031360
:10025000A7208430AB005320383003178D000030C6
:100260008F000313A7208A110A12DC2B83160915AD
:100270008312091953291430B2003F20831609153F
:10028000831209195329A10A0130AB00532002300F
:10029000B2003F20831609158312091D4A2921083F
:1002A000043C0319A10108003208F80131020318C7
:1002B0005C293108F7006829F7010830B300B10D57
:1002C000F70D320877020318F700F80DB30B5F291A
:1002D00008000C1CF8293621210B9F2983160914CC
:1002E0008312091886291430B2003F20831609149E
:1002F000831209188529A80A831609148312091C78
:100300007C292808183C0319A8019F298316891401
:10031000831289189F291430B2003F208316891454
:10032000831289189F29A803831689148312891CB4
:1003300094292808FF3C031D9F291730A800210895
:10034000023C031DD4298316091483120918BB2902
:100350001430B2003F208316091483120918BA29F9
:10036000A70A831609148312091CB12927083C3CEB
:100370000319A701D4298316891483128918D42953
:100380001430B2003F208316891483128918D429AF
:10039000A703831689148312891CC9292708FF3CE7
:1003A000031DD4293B30A7008E010B308F00DC30B9
:1003B0008E000000A40A0319A50A0C1024080A3CA8
:1003C000031DF829A508031DF829A501A401A60A03
:1003D00026083C3C031DF829A601A70A27083C3C37
:1003E000031DF829A701A80A2808183C0319A80129
:1003F000C030AB005320113003178D0000308F0048
:100400000313A720C630AB0053202808B1000A30E0
:10041000B20054217808B1000A30B20054213030C3
:100420007707AB00B10086202808B1000A30B2007F
:10043000542130307707AB00B10086203A30B1004C
:1004400086202708B1000A30B20054217808B10094
:100450000A30B200542130307707AB00B10086205B
:100460002708B1000A30B200542130307707AB00C2
:10047000B10086203A30B10086202608B1000A304B
:10048000B20054217808B1000A30B2005421303053
:100490007707AB00B10086202608B1000A30B20011
:1004A000542130307707AB00B1008620210B622A3F
:1004B000C630AB005320153003178D0000308F007D
:1004C0000313A7202108023C031D702AC930AB008A
:1004D0005320173003178D0000308F000313A7201F
:1004E0008A110A12DD2B0B08AC008B13831603173D
:1004F0008C170C140000000083120313AC1B8B1725
:100500000318AA2A03170C087F390313AC0003173A
:100510000D080313AD0003170F080313AE002C08DA
:10052000B10086202D0803178D0003132E08031732
:100530008F0003130B08AF008B13831603178C1760
:100540000C140000000083120313AF1B8B17AB0BBE
:10055000AA2AC92A03170C0D0E0D7F390313AC000C
:1005600003170D080313AD0003170F080313AE00A4
:100570002C08B10086202D0803178D0003132E08C8
:1005800003178F008D0A03198F0A03100313AB0B97
:10059000732A080020302C1E3030AD002B08F700E5
:1005A000AB1FDA2AF709F70A7708AB002D30AD0048
:1005B000AC172C142B08B1006430B200542177081A
:1005C000AB0030307807AE002B08B1000A30B20023
:1005D000542130307707B00030307807AF002D0855
:1005E000F70030302E020319F92AAC14AC1B2C157D
:1005F0000D2B2D08AE002030AD0030302F02031936
:10060000052B2C14AC1BAC140D2B031D2C14031D3B
:100610000D2B2E08AF002030AE002C19142BAC1877
:10062000172B2C181A2B1D2B2D08B10086202E08F5
:10063000B10086202F08B10086203008B100862046
:10064000080036212108033C031D652B831609147D
:10065000831209183E2B1430B2003F208316091470
:10066000831209183D2BA30A831609148312091C4F
:10067000342B2308643C0319A301572B83168914D8
:1006800083128918572B1430B2003F208316891427
:1006900083128918572BA303831689148312891C8C
:1006A0004C2B2308FF3C031D572B6330A30021086C
:1006B000033C031D652B9A30AB0053200430031715
:1006C0008D0000308F000313A7200108A20023082B
:1006D000803AF7002208803A77020318712B013024
:1006E00081009430AB005320063003178D0000309A
:1006F0008F00031006300313AB0073222308AB00F6
:100700001830AC00CA222030B10086209E30AB00E9
:1007100053200B3003178D0000308F00031008307A
:100720000313AB0073222208AB001830AC00CA22BE
:100730002030B10086208A110A12DE2B03081F39EF
:100740008300FF30A000A101A301A501A401A6011F
:10075000A701A801AA01A901831603170908C03936
:10076000890003131F129F120030031788008312A1
:1007700087018801890183131030831603138500D4
:10078000003087008312A0008316880009148910A6
:10079000091189118312742883160108C739383862
:1007A000810083128101353090008E010B308F0063
:1007B000DC308E000000FD286929212BDB2B630033
:04400E00E22FFF3F5F
:00000001FF
;PIC16F887
;CRC=844D  CREATED="01-Apr-23 11:57"
